:020000040800F2
:10000000F0060020A101000811190008AD17000832
:100010007D1800086D120008F12A00080000000099
:100020000000000000000000000000006520000843
:10003000F914000800000000311E000851210008DA
:10004000BB010008BB010008BB010008BB010008A0
:10005000BB010008BB010008BB010008BB01000890
:10006000BB010008BB010008BB010008BB01000880
:10007000BB010008BB010008BB010008BB01000870
:10008000BB010008BB010008BB010008BB01000860
:10009000BB010008BB010008BB010008BB01000850
:1000A000BB010008BB010008BB010008BB01000840
:1000B000F5230008BB0100080D240008BB0100085F
:1000C000BB010008BB010008BB010008BB01000820
:1000D000BB010008BB01000819280008BB0100088B
:1000E000BB010008BB010008BB01000800F002F8DA
:1000F00000F047F80AA090E8000C82448344AAF17B
:100100000107DA4501D100F03CF8AFF2090EBAE878
:100110000F0013F0010F18BFFB1A43F0010318473B
:100120007439000094390000103A24BF78C878C1AF
:10013000FAD8520724BF30C830C144BF04680C60ED
:10014000704700000023002400250026103A28BF35
:1001500078C1FBD8520728BF30C148BF0B60704739
:10016000662903F05281002070471FB500F02CFB78
:1001700004000020002102F0EBFDE0601FBD10B57F
:1001800010BD00F045FC1146FFF7EFFF02F08AFDBD
:1001900000F063FC03B4FFF7F2FF03BC00F0A4FC23
:1001A0000948804709480047FEE7FEE7FEE7FEE70B
:1001B000FEE7FEE7FEE7FEE7FEE7FEE70448054947
:1001C000054A064B7047000055210008ED00000865
:1001D000F0000020F0060020F0020020F0020020D5
:1001E0000FB41CB5074B06AA7B44694600900598DE
:1001F00000F0AFFA0020694600F0BEFA1CBC5DF8C2
:1002000014FB00008D0500002DE9F0474FF0000AB7
:1002100089460446C0F820A02046E16888470028A7
:1002200076D0252806D0D4E901219047206A401CC9
:100230002062F1E7E168204600258847C4F81CA049
:1002400006460027C4F818A02A2E09D0304602F02E
:1002500021FD38B304EB8708303EC8F8186019E078
:1002600059F8041B204604EB87029161E168884736
:10027000012F064618D1E069002820DA25F0200574
:100280001DE0D8F8180000EB800006EB4000303885
:10029000C8F818002046E1688847064602F0FAFCD4
:1002A0000028EED1012F0AD02E2E08D12046E16879
:1002B00088477F1C0646022F45F02005C4DBA06955
:1002C000002803DA404245F00105A061E80701D0AB
:1002D00025F01005B6B1A6F14100192802D8203644
:1002E00045F400654A463146204625604D46FFF7F5
:1002F00037FF58B1012806D0ED1D25F0070000F1A9
:10030000080989E704E005F1040985E730468AE732
:10031000206ABDE8F08702F0FF0343EA032242EAC5
:10032000024200F030BA70477047704770472DE9BD
:10033000FF4F0C461E464FF0FF378BB0D2E900014D
:10034000DDF860800A908A46C1F30A5505B93D463A
:10035000002108464FF00000BAF1000F00F4400001
:1003600005DA00EB80004FF4400101EA50004FEA4B
:100370009059B9F1010F00DDB9460A9850EA4A00D8
:100380000ED044F61050A5F2FF3545432F14B8F1B6
:10039000000F1ED07542291E1EDDC9F100021CE0AF
:1003A000B8F1010F4FF0000001D0302103E0F2431B
:1003B00005E02154401CB042FBDB30460022002106
:1003C00021540B99C1F80880C1E900200FB0BDE8A5
:1003D000F08FBD1B6D1CDEE74A4600DA694206A8B5
:1003E00000F07CFA06AB93E8070003AB83E8070054
:1003F00050460A9900F07FFB8DE80700A0F50050F9
:100400001F3800900398002D09DD42F21F014A4673
:10041000084403A90390684600F0DEFD08E0A0F55B
:1004200000504A461F3803A90390684600F0E8FDD3
:100430008DE807000004000C03D04FF0FF304108A6
:1004400000E01046B8F1000F03D0002200921546DC
:100450001EE0751E05D400F0BBF9303262556D1EEA
:10046000F9D5B3460122084302D000227F1C04E0E4
:100470002078302801D100227F1E002A099786D0DB
:100480001DE0112D07DA00F0A3F9303262556D1C22
:1004900050EA0102F5D1084302D00098C8B10EE03D
:1004A0000021681E05E0235C625C63542254401EF8
:1004B000491C8142F7DBAB46A81B401E0990002077
:1004C00004F80B000B98099AC0F80880C0E9002BCB
:1004D0007CE711264FF0000859E72DE9F04F8846D8
:1004E0000446D21D22F0070191B0D1E90001CDE907
:1004F0000A0102F0BBFB02460B98C00F01D02D2071
:1005000007E02068810701D52B2002E0202101EAC5
:10051000C000032A099001D0072A05DB03464146A3
:10052000204600F09BF90BE12078800601D5E069B8
:1005300000E00620B8F1650F814606D0B8F1660FDD
:1005400018D0B8F1670F70D131E00020B9F1110F68
:10055000009001DB112301E009F101030AAA01A9BE
:100560000CA8FFF7E4FEDDE90C70002609F1010597
:10057000834647E001204B4600904FF000470AAA0F
:1005800001A90CA8FFF7D3FEDDE90DB00C995D467B
:10059000002610B909F101000D18B9EB050003D4CC
:1005A000C0F1FF3609F10105A5EB09002BE0B9F117
:1005B000010F01DA4FF001090020B9F1110F00908D
:1005C000484601DD112300E003460AAA01A90CA850
:1005D000FFF7ADFEDDE90C704D460026834620781E
:1005E00000070AD4AB4500DA5D4601A8012D04DD01
:1005F000411911F8011C302907D04F4502DA17F1D3
:10060000040F04DA012082460FE06D1EEEE7002F92
:1006100002DCED1B3E4403E0781CA84200DD7D1C9B
:10062000B81B00F1010A4FF000472078000703D4FF
:10063000AA4501DB4FF0FF3A0021B7F1004F0DF161
:1006400043088DF8431024D002202B23002F01DA19
:100650007F422D230A21021EA0F1010000DC5FB1C0
:1006600097FBF1FC97FBF1F201FB1C7C17460CF1A8
:10067000300C08F801CDEEE7A8F1010003702188E5
:10068000090501D5452100E06521A0F1010800F828
:10069000011C09980FA9A1EB0807FF1D00B101205B
:1006A000411901EBEA70A1693844081A401EA061A3
:1006B0002078C00602D42046AFF30080099828B104
:1006C000D4E901219047206A401C20622078C006AE
:1006D00022D52046AFF300801EE0002E04DBB34598
:1006E00002DD01A8805D00E03020D4E901219047BF
:1006F000206A401C2062761CAAF101005FEA000A11
:100700000AD100F061F8C0680168405CD4E90121B9
:100710009047206A401C2062281EA5F10105DCDC00
:1007200007E0D4E9012118F8010B9047206A401C2A
:100730002062381EA7F10107F3DC2046AFF30080EA
:10074000032011B043E6000001694A1C02610878E9
:10075000704700B58FB0CDE9013100210591054901
:100760007944CDE9031011466846FFF74DFD0FB0FF
:1007700000BD0000E5FFFFFF0A6802F8010B0A60F8
:1007800070474FF000020429C0F0128010F0030CF3
:1007900000F01481CCF1040CBCF1020F18BF00F87A
:1007A000012BA8BF20F8022BA1EB0C0100F006B929
:1007B0005FEAC17C24BF00F8012B00F8012B48BF81
:1007C00000F8012B7047000000487047AC00002083
:1007D00030B5B0F10A024FEA900E71F100034EEA13
:1007E000817EB0EB0E0061EB91014FEA101E4EEAE4
:1007F000017E10EB0E0041EB11114FEA102E4EEA74
:10080000016E10EB0E0041EB11214FEA104E4EEA43
:10081000014E10EB0E0041EB1141401841F1000177
:100820004FEAD00040EA41704FEAD10110EB800559
:100830004FEA810444EA907444EB01046D1944EBDF
:100840000404521BA3414FF0000348BF0A3200D5F5
:1008500030BD401C41F1000130BD00002DE9F041E8
:100860001F46044603260168072A01F4006004DBE2
:1008700008B116A505E016A503E008B115A500E02E
:1008800015A521F010002060A069C01EA0610FB165
:10089000401EA0612046AFF300804FB1D4E9012192
:1008A00038469047206A401C2062C01C206206E047
:1008B000206AFAE7D4E9012115F8010B9047761E6A
:1008C000F8D22046AFF30080BDE8F0814E414E00E3
:1008D0006E616E00494E4600696E66002DE9F04774
:1008E000814616468AB0334878440DC88DE80D001D
:1008F00030487844801C03AC0DC884E80D0041F6F4
:100900009B300844372190FBF1F290FBF1F5A5F103
:10091000800501FB12041B3C02D56442012000E06B
:100920000020DFF890A080460027FA44AAF1BE0A12
:100930000DE0E00709D03246684607EB47010AEBB5
:10094000810100F05DFB8DE8070064107F1C002C26
:10095000EFD1184F7F44AC3F18E0E80714D007EB05
:1009600004100DF1180A90E80E008AE80E00C06825
:10097000F04201D198190890324606A903A800F068
:100980003FFB03AB83E807006D10641C002DE4D12E
:1009900032466946B8F1000F03A802D000F01CFBF4
:1009A00001E000F02DFBC9E90001C9F808200AB0F8
:1009B000BDE8F087903100004FF0000200B513460B
:1009C00094469646203922BFA0E80C50A0E80C506F
:1009D000B1F12001BFF4F7AF090728BFA0E80C5020
:1009E00048BF0CC05DF804EB890028BF40F8042B19
:1009F00008BF704748BF20F8022B11F0804F18BF86
:100A000000F8012B70470000004870478C00002060
:100A10007546FFF7F9FFAE4605006946534620F0DC
:100A20000700854618B020B5FFF7C8FBBDE8204099
:100A30004FF000064FF000074FF000084FF0000B9A
:100A400021F00701AC46ACE8C009ACE8C009ACE84D
:100A5000C009ACE8C0098D4670470446AFF300807A
:100A60002046FFF797FB00004FF0013C50F8042BA5
:100A700051F8043B9A4221D1A2EB0C03934313EAB1
:100A8000CC1317D150F8042B51F8043B9A4215D1DE
:100A9000A2EB0C03934313EACC130BD150F8042BB5
:100AA00051F8043B9A4209D1A2EB0C03934313EA99
:100AB000CC13DBD04FF00000704700BFD01A01BA52
:100AC000B1FA81F101F0180122FA01F0CB40C1F135
:100AD0002001DBB2C0B2C01A2CFA01F3D11A914343
:100AE00011EAC311E6D1704701491820ABBEFEE7F9
:100AF0002600020070475FEA400C08BF91F0000F2B
:100B00004FEA8C234FEAC12243EA51514FEA1C506D
:100B100018BF00F5F0404FEA300018BF41F0004127
:100B20005FEA6C5C00F02980BCF1FF3F08BF40F039
:100B300080407047130C06BF12044FF0100C4FF0AA
:100B4000000C130E04BF12020CF1080C130F04BFAB
:100B500012010CF1040C930F04BF92000CF1020C73
:100B6000D30F04BF52000CF1010C11464FF00002EC
:100B7000A0F11F00A0EB0C00704711F0004F08BF60
:100B8000704731F000413FF4D5AF0B0C06BF0904AC
:100B90004FF0100C4FF0000C0B0E04BF09020CF1CB
:100BA000080C0B0F04BF09010CF1040C8B0F04BFE0
:100BB00089000CF1020CCB0F04BF49000CF1010CB1
:100BC000CCF12003A0EB0C0022FA03F302FA0CF2A2
:100BD00041EA030100F10100704720F07F4C80EAF8
:100BE000030023F07F47ACEB070303F57C5300F0D1
:100BF000004003F1FF032DE980494FEA154B09B48A
:100C00004FEA144325EA0B4E24EA03480FF2042668
:100C100006EB132749083E785FEA320203FB0667BA
:100C2000C7F5000707FB06F64FEA54374FEAD646EA
:100C300006F1020607FB066CCCF1005C4FEA1C478C
:100C40002CEA074C07FB06F40CFB06F504EB1546F3
:100C50004FEA961634BF00204FF000404FEAD137DC
:100C600006FB07FC4FEA1C4C0CFB0BF7D21B03FBEB
:100C70000CF761EB07010CFB0EF7B0EB074072EBD2
:100C800017420CFB08F734BFA2EB0742B2EB074256
:100C900061EB17414FEA0C444FEA910706FB07FC52
:100CA0004FEA1C4C0CFB0BF7B0EBC74072EB573212
:100CB00003FB0CF734BFA2EBC742B2EBC74261EBB8
:100CC00057310CFB0EF7B0EBC70072EB57720CFB01
:100CD00008F734BFA2EBC702B2EBC70261EB577152
:100CE000039F4FEA816141EA921104EBCC044FEA81
:100CF000D1374FEA826206FB07FC42EA90124FEAC4
:100D000080604FEA1C4C0CFB0BF7D21B03FB0CF76B
:100D100061EB07010CFB0EF7B0EB074072EB1742DB
:100D20000CFB08F734BFA2EB0742B2EB074261EBC2
:100D300017414FEA8C554FEA910704EB9C2406FBC0
:100D400007FC4FEA1C4C0CFB0BF7B0EBC74072EBF7
:100D5000573203FB0CF734BFA2EBC742B2EBC742DA
:100D600061EB57310CFB0EF7B0EBC70072EB57721B
:100D70000CFB08F734BFA2EBC702B2EBC70261EB72
:100D8000577115EB4C254FEA816141EA92114FEA08
:100D900082624FEAD13742EA901206FB07FC44F127
:100DA00000044FEA80604FEA1C4C0CFB0BF7D21B8F
:100DB00003FB0CF761EB07010CFB0EF7B0EB0740F0
:100DC00072EB17420CFB08F734BFA2EB0742B2EB01
:100DD000074261EB174115EB1C154FEA813141EADF
:100DE00092414FEA823242EA90424FEA80304FEA23
:100DF0000C7644F1000448EA03434EEA0B484FF0F6
:100E0000000EB2EB080C71EB030724BF62463946B3
:100E10004EEB0E0E4FF0000B0018524149414BEBC8
:100E20000B0BB2EB080C71EB03077BF1000B24BF3B
:100E3000624639464EEB0E0E4FF0000B0018524141
:100E400049414BEB0B0BB2EB080C71EB03077BF149
:100E5000000B24BF624639464EEB0E0E51EA0207E4
:100E600018BF46F0010616EB0E7655F1000254F15C
:100E7000000103D5BDE88901BDE80088BDE889010E
:100E8000BDE80048B619524141EB0101A3F101034D
:100E9000704780807F7E7D7C7B7A797877767675E7
:100EA0007473727171706F6E6E6D6C6C6B6A6A695F
:100EB0006868676666656464636362616160605FF9
:100EC0005F5E5E5D5D5C5C5B5B5A5A595958585772
:100ED00057565655555554545353525252515150DA
:100EE00050504F4F4F4E4E4D4D4D4C4C4C4B4B4B2D
:100EF0004A4A4A4949494848484747474746464673
:100F000045454544444444434343434242424241AD
:100F10004141002B26D4770021D01CB54FEA37077A
:100F200003B44FF010004FF010014FF000000FBC61
:100F3000BDE810400BF1010BBBF1010F08BF5FEAE8
:100F4000170722BF12F1010211F101014FF0004118
:100F500043F1000300F0004043EA00007047F9D37A
:100F60005708DAE746EA064613F1400F4FEA1646FD
:100F70001FDD13F1200FDFBF16430A460021203387
:100F80005B42C8D0C3F1200746EA064602FA07F7DB
:100F90004FEA164646EA0706C3F1200722FA03F293
:100FA00001FA07F721FA03F14FF0000342EA0702C2
:100FB000B1E746EA020646EA06464FEA164646EA20
:100FC0000106BCBF46EA0646360C4FF000034FF060
:100FD00000024FF000019EE72DE9C048934630B46F
:100FE00091E8380007C831EA400C48BF34EA430CA6
:100FF00003D5FFF7F2FDFFF78CFFF0BCBDE80088DA
:101000002DE9C048934630B491E8380007C810F085
:10101000804F08BF13F0804F03D100F005F8FFF7B1
:1010200078FFF0BCBDE8008820F07F4780EA03002D
:1010300023F07F4C07EB0C03A3F57C5300F000403A
:10104000A3F1FE0392F0000F00F0B38095F0000FC3
:1010500000F077802DE901494FEA11404FEA14462C
:1010600021EA004800FB06FC24EA064708FB06F6D6
:1010700007FB08F800FB07F718EB06484CEB164C8B
:101080004FEA124B18EB07484FEA15464CEB174056
:1010900022EA0B4E0BFB06FC25EA06470EFB06F682
:1010A00007FB0EFE0BFB07F71EEB064E4CEB164C38
:1010B0004FF000061EEB074E4CEB174B18EB0B08DE
:1010C00040F1000018EB0E0B58EB000840F1000057
:1010D0008F1A4FF000013CBFC943661B14BFB5EB2C
:1010E000040C00213CBFC943F61B4FEA17444EEAEB
:1010F0008E0E27EA04454FEA1C4704FB07622CEAE0
:10110000074C05FB07F70CFB05F604FB0CFC16EB84
:10111000074642EB174216EB0C4642EB1C421BEB18
:10112000060658EB0202414146EA9E0601D5BDE89B
:101130000189B619524141EB0101A3F10103BDE858
:1011400001894FEA14454FEA114724EA054621EA8E
:10115000074C05FB07F406FB07F70CFB06F105FB44
:101160000CFC11EB074144EB17444FEA124711EB1B
:101170000C4144EB1C4422EA074C05FB07F206FB3A
:1011800007F70CFB06F605FB0CFC16EB074642EBDB
:10119000174216EB0C4642EB1C456A1854F100014D
:1011A00048BF7047B619524141EB0101A3F1010359
:1011B000704795F0000F37D04FEA11424FEA1447BD
:1011C00021EA024624EA074C02FB07F106FB07F777
:1011D0000CFB06F402FB0CFC14EB074441EB17413B
:1011E0004FEA154714EB0C4441EB1C4125EA074C30
:1011F00002FB07F506FB07F70CFB06F602FB0CFCEF
:1012000016EB074645EB174516EB0C4645EB1C4223
:10121000121951F1000148BF7047B619524141EB14
:101220000101A3F1010370474FEA14454FEA11474A
:1012300024EA054621EA074C05FB07F106FB07F700
:101240000CFB06F24FF0000605FB0CFC12EB07420C
:1012500041EB174112EB0C4251EB1C4148BF704768
:10126000921841EB0101A3F10103704700BFFEE7B3
:1012700070B53F4909783E4A527841EA022108B2E6
:1012800001F0FAFE05464FF08E4101F017FE0446CC
:10129000384901F03DFF3849086035498978344ABA
:1012A000D27841EA022108B201F0E6FE05464FF08D
:1012B0008E4101F003FE04462E4901F029FF2E491C
:1012C00048602B4909792A4A527941EA022108B239
:1012D00001F0D2FE05464FF08E4101F0EFFD0446CD
:1012E000244901F015FF2449886021498979204A61
:1012F000D27941EA022108B201F0BEFE05464FF064
:101300008E4101F0DBFD04461C4901F001FF1C4940
:1013100008601749097A164A527A41EA022108B24E
:1013200001F0AAFE05464FF08E4101F0C7FD0446CC
:10133000124901F0EDFE124948600D49897A0C4AC4
:10134000D27A41EA022108B201F096FE05464FF03A
:101350008E4101F0B3FD0446084901F0D9FE084969
:1013600088600C2200210248FEF7D5FF70BD000006
:10137000800000200000FA44680000200000344390
:101380007400002010B500F0B5FA10BD2DE9FC4145
:1013900001F0A0FB012857D1042000F041FE454296
:1013A000022000F03DFE0746FFF762FF00F042FD1D
:1013B0002648006801F044FE06463A46294601F0F8
:1013C00099FB234908600846006801F055FE8046F5
:1013D00020480168404601F003FD06461E480268A9
:1013E0001E480168304601F017FC1D4908601D4881
:1013F000006801F025FE06461749886801F020FEC6
:101400008046314601F0E2F9174908601448046843
:1014100008460068201A01900846006820440090A1
:10142000694601A800F0C4F910480078012804D1E9
:10143000DDE9001000F0DAF903E00021084600F0D1
:10144000D5F90120BDE8FC810020FBE72000002049
:10145000440000201C0000206800002074000020D0
:101460004000002024000020480000201800002038
:1014700008B50121042000F059FD4FF40070ADF8CB
:10148000000018208DF8030003208DF80200694643
:10149000074800F0FBF84FF48060ADF800004820EA
:1014A0008DF803006946024800F0F0F808BD00001E
:1014B000000801401FB5FFF7DBFF0121880300F0A2
:1014C00035FD4FF4E13000900020ADF80C000C2009
:1014D000ADF80A000020ADF80800ADF80600ADF840
:1014E00004006946034801F083FA0121014801F034
:1014F00024FA1FBD00380140704710B500F028F8ED
:1015000000F076F800F001F810BD08B54FF4A060C7
:1015100000F038FA1C208DF8000001208DF803003F
:101520008DF8010000208DF80200684600F0F2F905
:101530001E208DF8000001208DF803008DF80100B9
:1015400000208DF80200684600F0E4F908BD0000B4
:1015500000B587B00121084600F0D8FC0121042025
:1015600000F0E4FC0320ADF8180004208DF81B0007
:1015700003208DF81A0006A91C4800F087F8002007
:10158000ADF81200ADF80E004FF6FF70ADF8100088
:101590000020ADF80C0003A94FF0804001F0C4F822
:1015A00000231A4603214FF0804000F04FFF6846A9
:1015B00000F0D8FF0A20ADF808006946400700F0A7
:1015C0007BFF0121880700F02FFF012211469007C1
:1015D00000F0D1FF00214FF0804001F077F80121A9
:1015E000880700F027FF07B000BD00000008014099
:1015F00000B587B00121042000F088FC01210820FB
:1016000000F094FCC020ADF8180004208DF81B00F9
:1016100003208DF81A0006A91A4800F037F80020B8
:10162000ADF81200ADF80E004FF6FF70ADF81000E7
:101630000020ADF80C0003A9134801F075F8002351
:101640001A460321104800F001FF684600F08AFFA7
:101650000A20ADF8080069460B4800F02DFF012173
:10166000094800F0E1FE01221146074800F083FF1F
:101670000021054801F02AF80121034800F0DAFEB4
:1016800007B000BD000C0140000800402DE9F0410A
:10169000024600250026002000230024002791F8A0
:1016A00003C00CF00F0591F803C00CF0100CBCF156
:1016B000000F03D091F802C04CEA050591F800C074
:1016C000BCF1000F31D0146800202BE04FF0010C6A
:1016D0000CFA00F3B1F800C00CEA03069E4220D1D8
:1016E00083004FF00F0C0CFA03F7BC4305FA03FC20
:1016F0004CEA040491F803C0BCF1280F06D14FF066
:10170000010C0CFA00FCC2F814C00AE091F803C006
:10171000BCF1480F05D14FF0010C0CFA00FCC2F8E7
:1017200010C0401C0828D1D31460B1F800C0BCF12F
:10173000FF0F34DD546800202EE000F1080C4FF05C
:10174000010808FA0CF3B1F800C00CEA03069E4247
:1017500021D183004FF00F0C0CFA03F7BC4305FABC
:1017600003FC4CEA040491F803C0BCF1280F05D136
:1017700000F1080C08FA0CF8C2F8148091F803C0C4
:10178000BCF1480F07D100F1080C4FF0010808FA2E
:101790000CF8C2F81080401C0828CED35460BDE875
:1017A000F0810AB1016100E04161704700BFFEE7CE
:1017B0000268B2F5E15F02DD4FF4E15202600A68AF
:1017C000B2F5E15F02DD4FF4E1520A60026812F502
:1017D000E15F01DA044A02600A6812F5E15F01DAAA
:1017E000014A0A6070470000E0E3FFFF70B504465D
:1017F0000D46002C0ADD002210211E48FFF7D1FF04
:10180000012220211B48FFF7CCFF09E00122102113
:101810001848FFF7C6FF002220211648FFF7C1FF36
:10182000261E01DB314600E0714288B200F09AFAD0
:10183000002D0BDD012211030F48FFF7B2FF00223C
:101840004FF400510C48FFF7ACFF0AE000224FF4C0
:1018500080510948FFF7A5FF012251030648FFF711
:10186000A0FF2E1E01DB314600E0714288B200F07D
:1018700083FA70BD00080140000C014000BFFEE784
:1018800008B50121042000F051FB0121042000F0E3
:101890004DFB0121082000F049FB0121082000F048
:1018A00045FB1020ADF800008DF8030003208DF8F3
:1018B000020069460D48FFF7E9FE2020ADF8000060
:1018C00069460A48FFF7E2FE4FF48050ADF8000089
:1018D00069460748FFF7DAFE4FF40050ADF8000004
:1018E00069460348FFF7D2FE08BD0000000801402A
:1018F000000C014010B5FFF7C3FF00F061FAFFF7DD
:10190000FCFD10BD10B500F0CDF9FFF7D3FD10BD03
:101910007047000070B5002100230F22C47804B383
:10192000154C246804F4E064C4F5E064210AC1F1B4
:101930000403CA40447804FA03F184781440214334
:1019400009010E4C0678A155047804F01F05012406
:10195000AC4005786D11AD0005F1E025C5F80041FA
:1019600009E0047804F01F050124AC40044D06781A
:10197000761145F8264070BD0CED00E000E400E073
:1019800080E100E002490143024A11607047000013
:101990000000FA050CED00E070B500240EE0002117
:1019A000204600F0E6F8002504E0002000F06AF987
:1019B000681CC5B2802DF8DB601CC4B2082CEEDBBD
:1019C00070BD000008B50121082000F0AFFA4FF407
:1019D0008070ADF8000014208DF8030003208DF80E
:1019E000020069460A48FFF751FE4FF40070ADF857
:1019F000000069460648FFF749FE0122110204482B
:101A0000FFF7CFFE012251020148FFF7CAFE08BDD1
:101A1000000C014070B50546002415E080202041EF
:101A200000EA05024FF400710E48FFF7BAFE0122EA
:101A300011020C48FFF7B5FE00224FF480710948EF
:101A4000FFF7AFFE601CC4B2082CE7DB01221102D5
:101A50000448FFF7A6FE00224FF480710148FFF70B
:101A6000A0FE70BD000C014010B5012251020A48D1
:101A7000FFF797FE012211020748FFF792FE0022AE
:101A80004FF400710448FFF78CFE00224FF4807180
:101A90000148FFF786FE10BD000C014010B5002282
:101AA0004FF400710648FFF77CFE01221102044842
:101AB000FFF777FE012251020148FFF772FE10BDC9
:101AC000000C014070B5002406E0002500E06D1C0C
:101AD000B5F57A7FFBD3641CB4F57A7FF5D3FFF7B5
:101AE00071FFAE2000F0BEF8D52000F0BBF88020DA
:101AF00000F0B8F8A82000F0B5F83F2000F0B2F8E8
:101B0000D32000F0AFF8002000F0ACF8402000F047
:101B1000A9F8A12000F0A6F8C82000F0A3F8DA2068
:101B200000F0A0F8122000F09DF8812000F09AF853
:101B3000CF2000F097F8D92000F094F8F12000F0C1
:101B400091F8DB2000F08EF8302000F08BF8A42014
:101B500000F088F8A62000F085F88D2000F082F8CB
:101B6000142000F07FF8AF2000F07CF8FFF714FF9E
:101B700070BD70B505460C4645F0B00000F072F837
:101B8000102141EA141000F06DF804F00F0000F08D
:101B900069F870BD2DE9F04105460E461746721EE4
:101BA000D206110E6A1E5206100EFFF7E2FF002445
:101BB00009E0A7F12001134A02EB0111085D00F0D2
:101BC00061F8601CC4B2082CF3DB721ED206110E41
:101BD0006A1E012303EB4202D0B2FFF7CAFF0024C2
:101BE0000BE0A7F12001074A02EB011204F1080102
:101BF000505C00F047F8601CC4B2082CF1DBBDE873
:101C0000F08100000E3400082DE9F04107460E4631
:101C10001546002407E02A5D3019C1B23846FFF7A7
:101C2000B9FF601CC4B2285D0028F4D1BDE8F08182
:101C30002DE9F843054688461446204601F0A4F8ED
:101C4000064632460B4605A16846FEF7C9FA6A46C3
:101C500041462846FFF7D8FFBDE8F883252E3166B8
:101C60002020000010B50446FFF7FEFE7820FFF7A5
:101C7000D1FE0020FFF7CEFE2046FFF7CBFEFFF798
:101C80000DFF10BD10B50446FFF7EEFE7820FFF7FC
:101C9000C1FE4020FFF7BEFE2046FFF7BBFEFFF768
:101CA000FDFE10BD1FB500F027F80121480400F02B
:101CB0002DF94FF4E13000900020ADF80C000C201D
:101CC000ADF80A000020ADF80800ADF80600ADF848
:101CD00004006946074800F08BFE00F02DF8012251
:101CE00040F22551034800F05EFE0121014800F05A
:101CF00024FE1FBD0044004008B50121042000F06F
:101D000015F90420ADF8000018208DF80300032019
:101D10008DF8020069460748FFF7B8FC0820ADF8C7
:101D2000000048208DF8030069460248FFF7AEFC2A
:101D300008BD00000008014008B54FF4A060FFF79F
:101D400021FE26208DF8000001208DF803000220DE
:101D50008DF8010001208DF802006846FFF7DAFDDA
:101D600008BD000010B504462146024800F0AAFC58
:101D700010BD00000004004010B504462146024892
:101D800000F0A2FC10BD00000004004008B50121D5
:101D9000042000F0CBF80121042000F0C7F8C02097
:101DA000ADF8000018208DF8030003208DF8020024
:101DB00069460248FFF76AFC08BD000000080140C0
:101DC00010B5FFF7E3FF00F001F810BD00B587B0D4
:101DD0000121022000F09AF80020ADF8160041F62B
:101DE0001F40ADF814000020ADF81000ADF812004F
:101DF00004A90E4800F098FC6020ADF80000002017
:101E0000ADF808000120ADF802000020ADF8060092
:101E10006946064800F0B8FB6946044800F000FC3B
:101E20000121024800F006FB07B000BD000400409D
:101E30007047000010B52C48007801281CD12B48B1
:101E4000006841F28831884204DC28480068494231
:101E5000884205DA26480088401C2549088002E0AF
:101E600000202349088022480088142804DD00202F
:101E70001D4908701E4908801B48007890BB1D480A
:101E800001681D4800F0ACFF04461C48016820466C
:101E900001F00AFA1CD217480168194800F0A0FFA7
:101EA000044616480168204601F0FEF810D2154994
:101EB0000868114901F0F8F80AD212490868104977
:101EC00001F0F2F904D210480088401C0E49088045
:101ED0000D480088142805DD00200B4908800120EA
:101EE0000149087010BD00001800002040000020CB
:101EF000640000201C0000200000A04074000020AE
:101F00000000A0C0680000206600002029B1064A39
:101F1000D2690243044BDA6104E0034AD269824386
:101F2000014BDA61704700000010024029B1064AF7
:101F300092690243044B9A6104E0034A9269824326
:101F4000014B9A61704700000010024030B500213B
:101F50000022002400232D4D6D6805F00C0121B1F5
:101F6000042905D0082923D105E0294D056022E088
:101F7000274D05601FE0254D6D6805F47012234D57
:101F80006D6805F48034022505EB92421CB9214DA1
:101F9000554305600BE01D4D6D6805F400351DB11E
:101FA0001C4D5543056002E0194D5543056002E0A4
:101FB000174D056000BF00BF144D6D6805F0F001BE
:101FC0000909154D6B5C0568DD4045600F4D6D6876
:101FD00005F4E061090A104D6B5C4568DD408560E1
:101FE0000A4D6D6805F46051C90A0B4D6B5C45687C
:101FF000DD40C560054D6D6805F44041890B074D16
:102000006B5CC568B5FBF3F5056130BD001002409F
:1020100000127A0000093D0000000020100000209E
:1020200070B50546022D02D0042D14D10AE04FF000
:10203000804000F02CFA04B200214FF0804000F004
:1020400045FB0AE0064800F022FA04B200210448E9
:1020500000F03CFB01E0002400BF00BF204670BD43
:1020600000080040704710B500F002F810BD0000F5
:102070000CB50020019000903348006840F4803097
:102080003149086000BF3048006800F4003000901B
:102090000198401C0190009818B90198B0F5A06F04
:1020A000F1D12948006800F4003010B101200090FF
:1020B00001E0002000900098012843D123480068E7
:1020C00040F01000214908600846006820F0030035
:1020D00008600846006840F0020008601A4840683E
:1020E000194948600846406848600846406840F41E
:1020F000806048600846406820F47C1048600846CC
:10210000406840F4E81048600846006840F080707D
:10211000086000BF0C48006800F000700028F9D08B
:102120000948406820F003000749486008464068B5
:1021300040F00200486000BF0348406800F00C0017
:102140000828F9D10CBD0000001002400020024018
:102150007047000010B51348006840F001001149B5
:10216000086008464068104908400E494860084623
:1021700000680E4908400B4908600846006820F4D2
:10218000802008600846406820F4FE0048604FF454
:102190001F008860FFF767FF4FF000600449086088
:1021A00010BD0000001002400000FFF8FFFFF6FE27
:1021B00008ED00E0F0B50C46154600220021068C23
:1021C0004FF6FE773E400684028B018C4FF60C766C
:1021D00032407E1C06EA03162E433243104EB042B4
:1021E0000ED0104EB0420BD0B0F1804F08D00E4E42
:1021F000B04205D00D4EB04202D00D4EB04206D1D5
:102200004FF6FD76314044F00106314305E04FF6CC
:10221000F576314044F00106314302830184F0BD7C
:10222000002C014000340140000400400008004040
:10223000000C0040F0B50C46154600220021002697
:10224000078C4FF6EF7C07EA0C070784028B018CA2
:102250004FF6FF7707EA041640F6FF473A404FF67D
:10226000FF7707EA03373A434FF6FF7707EA052778
:102270003A43114FB8420ED0104FB8420BD0B0F1D4
:10228000804F08D00E4FB84205D00E4FB84202D052
:102290000D4FB84206D14FF6DF77394046F01007B0
:1022A000394305E04FF65F77394044F01007394372
:1022B00002830184F0BD0000002C01400034014085
:1022C0000004004000080040000C0040F0B50C463F
:1022D0001546002200210026078C4FF6FF6C07EA06
:1022E0000C070784828B018C4FF6FF7707EA0426E0
:1022F0004FF60C773A404FF6FF7707EA03172F4364
:102300003A43114FB8420ED0104FB8420BD0B0F143
:10231000804F08D00E4FB84205D00E4FB84202D0C1
:102320000D4FB84206D14FF6FF57394046F480773B
:10233000394305E04FF2FF57394044F48077394381
:1023400082830184F0BD0000002C01400034014074
:102350000004004000080040000C0040F0B50C46AE
:102360001546002200210026078C4EF6FF7C07EA66
:102370000C070784828B018C4FF6FF7707EA04363F
:1023800040F6FF473A404FF6FF7707EA05273A4302
:102390004FF6FF7707EA03373A43114FB8420ED0A2
:1023A000104FB8420BD0B0F1804F08D00E4FB8425A
:1023B00005D00E4FB84202D00D4FB84206D14DF6AF
:1023C000FF77394046F48057394305E047F6FF5719
:1023D000394044F48057394382830184F0BD0000C2
:1023E000002C01400034014000040040000800407F
:1023F000000C004010B50121880700F04BF80128BF
:1024000003D10121800700F012F810BD10B50121A1
:10241000044800F03FF8012803D10121014800F0F1
:1024200006F810BD00080040CA4302827047CA4344
:102430000282704721B1028842F00102028004E06A
:1024400002884FF6FE731A4002807047F0B50C46C2
:1024500015461E460021002200230189028B038CB1
:102460004FF6F877394021434FF6FC473A4040F2A7
:1024700001173A434FF6DD773B404FF6FF7707EA07
:1024800006172F433B43018102830384F0BD0146BD
:10249000888C704730B50246002000230024158A3E
:1024A00005EA0103958905EA010413B10CB1012085
:1024B00000E0002030BD000070B505460C46244801
:1024C00085420ED0234885420BD0B5F1804F08D00D
:1024D0002148854205D02148854202D020488542C6
:1024E00000D100E000BF208850B92389A28861880C
:1024F0002846FFF75FFEE188284600F0E9F825E06E
:10250000208804280AD12389A28861882846FFF7F9
:1025100091FEE188284600F0E4F817E020880828BA
:102520000AD12389A28861882846FFF7CFFEE18877
:10253000284600F0E3F809E02389A288618828464C
:10254000FFF70CFFE188284600F0E1F870BD0000BD
:10255000002C01400034014000040040000800400D
:10256000000C004000210180418001218180002178
:10257000C180018170471AB183890B43838102E0D6
:1025800083898B438381704770B500240022002328
:10259000058C4FF6FE7635400584028C8388048BCB
:1025A0004FF68F752C40B51E2C400D882C43751EA0
:1025B0002A400D892A434D882A43144DA8420BD046
:1025C000134DA84208D0134DA84205D0124DA84281
:1025D00002D0124DA84213D14FF6F7752A404D890B
:1025E0002A434FF6FB752A408D882A434FF6FF6534
:1025F0002B404FF6FF552B408D892B43CD892B4324
:1026000083800483CD888586028470BD002C0140C0
:1026100000340140004001400044014000480140B6
:1026200070B5002400220023058C4FF6EF7635406C
:102630000584028C8388048B48F6FF752C404FF686
:10264000FF452C400D884FF6FF7606EA05252C4302
:102650004FF6DF752A400D8906EA05152A434D8895
:1026600006EA05152A43154DA84202D0144DA8428A
:102670001DD14FF67F752A404D894FF6FF7606EA49
:1026800005152A434FF6BF752A408D8806EA0515C1
:102690002A434FF6FF352B404FF2FF752B408D89B3
:1026A00006EA85052B43CD8906EA85052B43838001
:1026B0000483CD880587028470BD0000002C014092
:1026C00000340140818670470187704781847047DC
:1026D000028B4FF6F3731A400283028B0A43028384
:1026E0007047028B4FF2FF331A400283028B4FF682
:1026F000FF7303EA01231A4302837047828B4FF66C
:10270000F3731A408283828B0A4382837047828BE1
:102710004FF2FF331A408283828B4FF6FF7303EA36
:1027200001231A4382837047002202881D4B98427E
:102730000ED01D4B98420BD0B0F1804F08D01B4BF0
:10274000984205D01A4B984202D01A4B984204D1B5
:102750004FF68F731A404B881A43174B984207D095
:10276000164B984204D04FF6FF431A40CB881A43C9
:1027700002808B8883850B8803850A4B98420BD097
:10278000094B984208D00E4B984205D00D4B984209
:1027900002D00D4B984201D10B7A0386012383822C
:1027A00070470000002C014000340140000400404C
:1027B00000080040000C00400010004000140040E1
:1027C0000040014000440140004801402DE9F0472D
:1027D00005460C46204600F04FFC82460C48016836
:1027E000504600F095FC8046284600F045FC8246A5
:1027F00008480168504600F08BFC8146414600F0D5
:10280000EFFA074600F01CFC06463046BDE8F087AC
:10281000380000203C00002010B540F225513A4815
:1028200000F097F801286ED1374800F04DF9C4B296
:102830003648007848B9552C03D101203349087037
:102840005BE000203149087057E0304800780128EB
:1028500009D1522C03D102202C4908704DE00020F0
:102860002A49087049E029480078022810D12848F0
:1028700028490978445427480078401C25490870A5
:1028800008460078062838DB03202049087034E029
:102890001E480078032809D1552C03D104201B4978
:1028A00008702AE003201949087026E017480078CC
:1028B000042809D1532C03D10520144908701CE0C9
:1028C00003201249087018E010480078052814D138
:1028D0000F481049097844540E480078401C0D49AF
:1028E0000870084600780C2807DB002007490870AC
:1028F0000849087001200849087040F22551024833
:1029000000F00CF800BF10BD00440040150000208E
:1029100080000020160000201400002010B50022C6
:10292000002340F66A14A14200D100BF0A1201241C
:102930009440A3B2DC43048010BD21B1828942F4EB
:102940000052828104E082894DF6FF731A40828131
:10295000704770B50246002400230025002040F691
:102960006A16B14200D100BFC1F3421501F01F0346
:10297000012606FA03F3012D02D19689334006E0C1
:10298000022D02D1168A334001E0968A33400C12A0
:10299000012606FA04F41688344013B10CB1012064
:1029A00000E0002070BDF0B503460024002600259D
:1029B000002040F66A17B94200D100BF1846C1F3A3
:1029C000421401F01F06012707FA06F5012C01D178
:1029D0000C3004E0022C01D1103000E014301AB1A8
:1029E00007682F43076002E00768AF430760F0BD48
:1029F0002DE9F04786B005460E460024A24600BFEA
:102A0000A1460027B08900B100BF2F462C8A4CF6A2
:102A1000FF700440F08804432C82AC894EF6F3101A
:102A20000440B08831890843718908430443AC816C
:102A3000AC8A4FF6FF400440B0890443AC8201A841
:102A4000FFF784FA1F48874202D1DDF810A001E0A9
:102A5000DDF80CA0A88900F4004040B10AEBCA00E0
:102A600000EB0A1031684900B0FBF1F807E00AEB0F
:102A7000CA0000EB0A1031688900B0FBF1F864204D
:102A8000B8FBF0F004012009642101FB1089A8893A
:102A900000F4004040B1322000EBC900B0FBF1F07F
:102AA00000F00700044308E0322000EB0910642125
:102AB000B0FBF1F000F00F0004432C8106B0BDE83C
:102AC000F08700000038014001468888C0F3080004
:102AD0007047000005480078012804D10020034910
:102AE0000870012070470020FCE70000140000205F
:102AF00000BFFEE72DE9F84F04460D4616463B4F52
:102B00003B48007850B900203A4908603A490860CB
:102B10003A4908603A4908603A490860A819001B18
:102B2000374908600846006837490860314800683E
:102B300000F0A2FA8346394600F0EAFA81463048AE
:102B4000006800F099FA834639464FF07E5000F055
:102B5000E7FB5946009000F0DBFA8246494600F058
:102B60003FF9804600F06CFA234908600846006887
:102B700020490860214800681F49096808441F4926
:102B800008600846006842F21071884201DD08467C
:102B900008E01A4800681D49884201DA084601E049
:102BA00016480068154908600846006800F064FA95
:102BB000834617480168584600F0AAFA81460E4835
:102BC000006800F059FA834612480168584600F040
:102BD0009FFA8246494600F003F9804600F030FA39
:102BE0000849086008460068BDE8F88F3333333F72
:102BF00018000020600000205C0000205800002029
:102C000054000020500000204C000020F0D8FFFFAE
:102C100034000020300000202DE9F05F05460E460C
:102C200014460021204600F07BFB83460D480168D6
:102C3000584600F06DFA81463146284600F065FBA3
:102C4000834609480168584600F062FA82464946C0
:102C500000F0C6F8804600F0F3F907463846BDE8B4
:102C6000F09F00002C00002028000020490050EABE
:102C7000C12018BF04204A0D18BF40F0010040F2E7
:102C8000FF72B2EB515F08BF40F00200012808BF9D
:102C90000520704730380A2801D2012070470020F3
:102CA00070470000FEF70EFFFEF72CFEFEF76AFBF2
:102CB0001FA201210846FEF7A7FF1FA20121032042
:102CC000FEF7A2FF33E0FEF761FB01282FD11C487D
:102CD000082102680120FEF7ABFF19480221426873
:102CE0000846FEF7A5FF1648082182680220FEF775
:102CF0009FFF1448006800F0BFF9044622460821EF
:102D00000320FEF795FF1048006800F0B5F904466F
:102D1000224602210420FEF78BFF0C48006800F0D9
:102D2000ABF90446224608210420FEF781FFCAE7DA
:102D3000416E676C653A20004F75743A20000000C0
:102D400074000020400000204400002048000020C3
:102D500010B500290AD00878002807D00548784423
:102D6000FDF782FE002801D0002010BD0248784403
:102D700010BD0000560D00004E0D00000808A0F523
:102D800000114FEA3101704743004FEAD30C4FEA7C
:102D90003C0C43401FBF40070CF1605113F0FE4F45
:102DA00070471CF0006F03D100200CF00041704709
:102DB0000CF0004343EA507010B540EACC0000F03C
:102DC00028FA00BF000000924FEA0001FFF7D6BFCB
:102DD0004FF000414FF00000A1F5002170470000C6
:102DE00090EA010F48BF81F0004100F1A082421A31
:102DF0003CBF801A89184FEAD0524FF07F4C1CEA32
:102E0000410FA2EBD15318BF9CEA026F00F03B8048
:102E10004FF0004C4CEA00204CEA012121FA03FC5F
:102E200010EB0C0C1ED202F1FF325FEA1C2040EBCB
:102E3000C25038BF70471CF07F0F4FEA400C18BFDC
:102E4000BCF17F4F38BF7047C3F12003994008BFE2
:102E500020F00100BCF17F4F38BF7047A0F1C040A7
:102E600000F01DBA4FEA3C00000A40EBC25028BFF8
:102E70001CF0FF0F4FEA400CE6D018BFBCF17F4FAB
:102E800038BF7047EAE79CEA026F05D010EA5C0F92
:102E900008BF00F00040704710B500F0BAF900BF5D
:102EA00064FBBE3E401058BFC0F14040491058BFBF
:102EB000C1F140418142EFF3008070474FF47F0C35
:102EC0001CEAD0121EBF1CEAD11392EA0C0F93EA3F
:102ED0000C0F00F0858090EA010F48BF42F4807229
:102EE00040F4000C41F400002CF07F4120F07F40C2
:102EF00000B58142A2EB03020FF2081CACEB504E6E
:102F0000C0F100009EF800E04FEA4E0E00FB0EFC00
:102F100038BF49004FEA2C1C02F5FA020CFB0EF3F5
:102F20004FEACE1E4FEA112C4FEAC1210EEB635E31
:102F300042EB22420EFB0CFC4FEA1C5300FB031138
:102F40004FEA112C4FEA01310EFB0CFC4FEADC4C2E
:102F500000FB0C11C14228BF09184CEB03335DF88C
:102F600004EB10EB410143EBC250B2F57C0F38BFCC
:102F7000704729D512F0F00F1CBF00F1C04000F0DF
:102F800000407047008182838485868788898B8C86
:102F90008D8E8F919293959697999A9C9D9FA0A2C2
:102FA000A3A5A7A8AAACAEB0B2B3B5B7B9BCBEC012
:102FB000C2C5C7C9CCCED1D4D7D9DCDFE2E6E9ECB3
:102FC000F0F3F7FAFE0000004FEA400C0CF1807CB1
:102FD000BCF17E4F28BF7047B0F1C04000F05FB930
:102FE00090EA010F0CEAD11348BF42F480726245A7
:102FF00038BF634507D213F47F0F16D080EA010073
:1030000000F00040704710B500F003F9097EFC3E67
:1030100000F005B880EA010000F00040704780EA47
:10302000010000F0004000F03AB912F47F0F04BF35
:103030000248704780EA010000F031B90000C07F0B
:1030400041000B0ED3F19E0208D950F400034FEA61
:10305000032323FA02F048BF4042704710B500F046
:10306000D8F800BF49922480002070476FF00042DA
:1030700082EA20007047000010F0004148BF404243
:10308000B0FA80F310FA03F2C3F19D030BD051EABA
:10309000C35101EB1220530638BF704700F1010005
:1030A00008BF20F00100704750EA010C00F11380C6
:1030B0001CF5000F58BFBCF5000F01D488427047C3
:1030C00007D710F5000F58BF11F5000F15D488422F
:1030D0007047894270471CF5000F04D5BCF5000FFE
:1030E000F7D5814270474FF0807C1CEB400F38BF12
:1030F0001CEB410F01D28142704710B500F089F8F6
:10310000922449004FF000504FF08051FFF7CABEA3
:103110004FF47F0C1CEAD0121EBF1CEAD11392EAB6
:103120000C0F93EA0C0F00F0478090EA010F48BFA4
:1031300042F480724FF0004C4CEA00204CEA01212E
:1031400002EB0302A0FB0113A2F50002002918BF45
:1031500043F001035B0028BF4FEA330342EB2242F6
:103160005FEA132C4CEBC2502EBFBCEB436FB2F5A1
:103170007C0F70474FEA036CBCF1004F08BF20F092
:103180000100B2F57C0F38BF70470BD582F0FF020B
:1031900012F5803FC8BF704700F1C040D8BF00F0B3
:1031A0000040704700F5000C5FEA4C0C48BF7047C8
:1031B000B0F1C04000F073B890EA010F0CEAD113EF
:1031C00048BF42F48072624538BF634504D280EA4A
:1031D000010000F00040704710B500F01AF800BF81
:1031E0008900013E00F007B800F009B85FEA410C21
:1031F0005FEA1C6C08D080EA010000F050B85FEA7A
:10320000400C5FEA1C6CF6D14FF00040A0F5800046
:1032100070470EF1020E2EF0030E5EF8044B2442AE
:1032200004D44FEA4102B2F17F4F11D84FEA400374
:10323000B3F17F4F0CD80ED14FEAD07CB2F17F4F63
:103240000CEB4C0C0CF1020C08BF4CEBD17C04E0F5
:103250004FF0080C01E04FEAD17C0CEB4C0324FA50
:1032600003F404F00704B4F1040C06D20EEB840C52
:10327000BDE810404CF0010C6047DFE80CF0070897
:1032800002024FF00040A0F5800010BD0846420049
:1032900018BFD2F1807288BF00F0004010BDFF213E
:1032A00041EAD050C005704751EA000C00F113808C
:1032B0001CF5000F58BFBCF5000F01D481427047C8
:1032C00007D711F5000F58BF10F5000F15D4814234
:1032D0007047894270471CF5000F04D5BCF5000FFC
:1032E000F7D5884270474FF0807C1CEB410F38BF08
:1032F0001CEB400F01D28842704780EA010081EA4E
:10330000000180EA0100FFF7F8BE80F0004090EA7B
:10331000010F7FF56CAD81F0004100F008B80000AE
:1033200090EA010F48BF81F000413FF560AD421ABD
:1033300004D882F00042A0EB020011444FEAD052C0
:103340004FF07F4C1CEA410FA2EBD15318BF9CEA0F
:10335000026F4AD04FF0004C4CEA00204CEA0121A9
:1033600021FA03FCB0EB0C0C0FD412F0FE0F36D098
:103370005FEA4C001DD5001240EBC25038BF7047C9
:103380001CF03F0F18BF70470BE0A2F101025FEA8B
:103390001C2040EBC25038BF70471CF07F0F18BF95
:1033A0007047C3F12003994014BF401E20F0010074
:1033B000704780084FEA122308BF7047B0FA80FCBC
:1033C000A2EB0C02CCF1280C60FA0CF093EA122F5D
:1033D00004BF00EBC25070474FEAC3707047130A36
:1033E0005FEADC1008BF7047F6E79CEA026F04D082
:1033F00010EA5C0F08BF0020704710B5FFF709FF07
:1034000040DFF63E81F000407047FDF766B80000EF
:1034100000000000000000000000000000000000AC
:1034200000F8000000000000003330000000001031
:103430000C06100C0600000000000000000040C058
:103440007840C0784000043F04043F04040000704A
:1034500088FC08300000001820FF211E0000F00842
:10346000F000E018000000211C031E211E0000F0E7
:103470000888700000001E2123241927211010162F
:103480000E0000000000000000000000000000002E
:1034900000E01804020000000007182040000002AD
:1034A0000418E00000000040201807000000404021
:1034B00080F0804040000202010F01020200000083
:1034C00000F0000000000101011F010101000000E7
:1034D00000000000000080B070000000000000004C
:1034E00000000000000000010101010101010000D5
:1034F000000000000000003030000000000000006C
:10350000000080601804006018060100000000E060
:1035100010080810E000000F102020100F0000100D
:1035200010F8000000000020203F20200000007064
:10353000080808887000003028242221300000305C
:103540000888884830000018202020110E00000054
:10355000C02010F8000000070424243F240000F8D5
:103560000888880808000019212020110E0000E0BA
:10357000108888180000000F112020110E0000385C
:103580000808C83808000000003F00000000007074
:10359000880808887000001C222121221C0000E0FD
:1035A00010080810E0000000312222110F00000076
:1035B00000C0C0000000000000303000000000002B
:1035C000008000000000000080600000000000009B
:1035D0008040201008000001020408102000404034
:1035E0004040404040000404040404040400000877
:1035F000102040800000002010080402010000702C
:1036000048080808F0000000003036010000C03013
:10361000C828E810E0000718272423140B00000036
:10362000C038E0000000203C23020227382008F8C0
:10363000888888700000203F202020110E00C030B4
:10364000080808083800071820202010080008F88B
:1036500008080810E000203F202020100F0008F884
:103660008888E8081000203F20202320180008F850
:103670008888E8081000203F200003000000C030C8
:1036800008080838000007182020221E020008F849
:1036900008000008F808203F210101213F20000810
:1036A00008F8080800000020203F2020000000004B
:1036B0000808F8080800C08080807F00000008F833
:1036C00088C028180800203F20012638200008F86C
:1036D000080000000000203F20202020300008F8D3
:1036E000F800F8F80800203F003F003F200008F8ED
:1036F00030C00008F808203F200007183F00E01005
:1037000008080810E0000F10202020100F0008F813
:1037100008080808F000203F210101010000E01026
:1037200008080810E0000F18242438504F0008F84B
:10373000888888887000203F2000030C30200070AB
:103740008808080838000038202121221C001808A9
:1037500008F8080818000000203F2000000008F8C2
:1037600008000008F808001F202020201F0008780B
:10377000880000C83808000007380E010000F8086B
:1037800000F80008F800033C0700073C0300081895
:1037900068808068180820302C03032C30200838FB
:1037A000C800C83808000000203F200000001008B2
:1037B0000808C838080020382621202018000000FA
:1037C00000FE020202000000007F40404000000CAA
:1037D00030C000000000000000010638C0000002F8
:1037E0000202FE000000004040407F000000000098
:1037F00004020202040000000000000000000000BB
:1038000000000000000080808080808080800002B6
:1038100002040000000000000000000000000000A2
:103820008080808000000019242222223F2008F896
:10383000008080000000003F112020110E000000D9
:10384000008080800000000E112020201100000068
:1038500000808088F800000E112020103F2000001A
:10386000808080800000001F22222222130000801E
:1038700080F0888888180020203F20200000000069
:10388000808080808000006B94949493600008F89E
:10389000008080800000203F210000203F20008029
:1038A0009898000000000020203F20200000000029
:1038B00000809898000000C08080807F000008F899
:1038C000000080808000203F24022D30200000086E
:1038D00008F8000000000020203F20200000808029
:1038E000808080808000203F20003F20003F80803B
:1038F000008080800000203F210000203F20000049
:10390000808080800000001F202020201F008080F9
:1039100000808000000080FFA12020110E00000028
:10392000008080808000000E112020A0FF80808019
:1039300080008080800020203F21200001000000C6
:10394000808080808000003324242424190000809B
:1039500080E0808000000000001F202000008080A8
:10396000000000808000001F202020103F20808069
:1039700080000080808000010E30080601008080F9
:103980000080008080800F300C030C300F0000801E
:103990008000808080000020312E0E312000808049
:1039A00080000080808080818E7018060100008079
:1039B0008080808080000021302C22213000000097
:1039C0000000807C020200000000003F4040000038
:1039D0000000FF00000000000000FF0000000002E7
:1039E000027C800000000040403F00000000000614
:1039F00001010202040400000000000000000000B9
:103A000002400000000000A000000000054000008F
:103A1000000000C8000000000C4000000000409CB6
:103A200000000000194000000020BCBE00000000A3
:103A300034400000BFC91B8E00000004B5400000E8
:103A4000504BCFD06607E2CF010000006C41000070
:103A50003E8251AADFEEA73401000000D9420000E7
:103A6000DCB5A0E23A301F97FFFFFFFFB44500002E
:103A7000FD25A0C8E9A3C14FFFFFFFFFFF3F0000E6
:103A80000000008000000000FF3F000000000080F8
:103A900000000000D03A000800000020680000008C
:103AA00028010008383B0008680000208806000054
:103AB000440100081C00000043000000F8FFFFFF65
:103AC0000C0000000E0000000F0000002E0000009F
:103AD00000000000010203040102030406070809B4
:103AE000020406080000000001000000CDCCCC3E1E
:103AF00000000000000000000000484300004041BA
:103B0000CDCCCC3E04E70C3B00000000000040415F
:103B100000000000000000000000000000000000A5
:103B20000000000000000000000000000000000095
:083B300000000000000000008D
:04000005080000ED02
:00000001FF
