:020000040800F2
:1000000008070020A1010008BD1800085D170008BE
:10001000351800086D120008E72A000800000000EB
:10002000000000000000000000000000AD1E0008FD
:10003000F113000800000000511D0008991F00087E
:10004000BB010008BB010008BB010008BB010008A0
:10005000BB010008BB010008BB010008BB01000890
:10006000BB010008BB010008BB010008BB01000880
:10007000BB010008BB010008BB010008BB01000870
:10008000BB010008BB010008BB010008BB01000860
:10009000BB010008BB010008BB010008BB01000850
:1000A000BB010008BB010008BB010008BB01000840
:1000B0003D22000855220008D1230008BB0100089A
:1000C000BB010008BB010008BB010008BB01000820
:1000D000BB010008BB0100082D280008BB01000877
:1000E000BB010008BB010008BB01000800F002F8DA
:1000F00000F047F80AA090E8000C82448344AAF17B
:100100000107DA4501D100F03CF8AFF2090EBAE878
:100110000F0013F0010F18BFFB1A43F0010318473B
:10012000A83A0000C83A0000103A24BF78C878C145
:10013000FAD8520724BF30C830C144BF04680C60ED
:10014000704700000023002400250026103A28BF35
:1001500078C1FBD8520728BF30C148BF0B60704739
:10016000662903F0D880002070471FB500F02CFBF3
:1001700004000020002102F0E3FDE0601FBD10B587
:1001800010BD00F045FC1146FFF7EFFF02F082FDC5
:1001900000F063FC03B4FFF7F2FF03BC00F0A4FC23
:1001A0000948804709480047FEE7FEE7FEE7FEE70B
:1001B000FEE7FEE7FEE7FEE7FEE7FEE70448054947
:1001C000054A064B704700009D1F0008ED0000081F
:1001D0000801002008070020080300200803002071
:1001E0000FB41CB5074B06AA7B44694600900598DE
:1001F00000F0AFFA0020694600F0BEFA1CBC5DF8C2
:1002000014FB00008D0500002DE9F0474FF0000AB7
:1002100089460446C0F820A02046E16888470028A7
:1002200076D0252806D0D4E901219047206A401CC9
:100230002062F1E7E168204600258847C4F81CA049
:1002400006460027C4F818A02A2E09D0304602F02E
:1002500019FD38B304EB8708303EC8F8186019E080
:1002600059F8041B204604EB87029161E168884736
:10027000012F064618D1E069002820DA25F0200574
:100280001DE0D8F8180000EB800006EB4000303885
:10029000C8F818002046E1688847064602F0F2FCDC
:1002A0000028EED1012F0AD02E2E08D12046E16879
:1002B00088477F1C0646022F45F02005C4DBA06955
:1002C000002803DA404245F00105A061E80701D0AB
:1002D00025F01005B6B1A6F14100192802D8203644
:1002E00045F400654A463146204625604D46FFF7F5
:1002F00037FF58B1012806D0ED1D25F0070000F1A9
:10030000080989E704E005F1040985E730468AE732
:10031000206ABDE8F08702F0FF0343EA032242EAC5
:10032000024200F030BA70477047704770472DE9BD
:10033000FF4F0C461E464FF0FF378BB0D2E900014D
:10034000DDF860800A908A46C1F30A5505B93D463A
:10035000002108464FF00000BAF1000F00F4400001
:1003600005DA00EB80004FF4400101EA50004FEA4B
:100370009059B9F1010F00DDB9460A9850EA4A00D8
:100380000ED044F61050A5F2FF3545432F14B8F1B6
:10039000000F1ED07542291E1EDDC9F100021CE0AF
:1003A000B8F1010F4FF0000001D0302103E0F2431B
:1003B00005E02154401CB042FBDB30460022002106
:1003C00021540B99C1F80880C1E900200FB0BDE8A5
:1003D000F08FBD1B6D1CDEE74A4600DA694206A8B5
:1003E00000F07CFA06AB93E8070003AB83E8070054
:1003F00050460A9900F07FFB8DE80700A0F50050F9
:100400001F3800900398002D09DD42F21F014A4673
:10041000084403A90390684600F0DEFD08E0A0F55B
:1004200000504A461F3803A90390684600F0E8FDD3
:100430008DE807000004000C03D04FF0FF304108A6
:1004400000E01046B8F1000F03D0002200921546DC
:100450001EE0751E05D400F0BBF9303262556D1EEA
:10046000F9D5B3460122084302D000227F1C04E0E4
:100470002078302801D100227F1E002A099786D0DB
:100480001DE0112D07DA00F0A3F9303262556D1C22
:1004900050EA0102F5D1084302D00098C8B10EE03D
:1004A0000021681E05E0235C625C63542254401EF8
:1004B000491C8142F7DBAB46A81B401E0990002077
:1004C00004F80B000B98099AC0F80880C0E9002BCB
:1004D0007CE711264FF0000859E72DE9F04F8846D8
:1004E0000446D21D22F0070191B0D1E90001CDE907
:1004F0000A0102F0B3FB02460B98C00F01D02D2079
:1005000007E02068810701D52B2002E0202101EAC5
:10051000C000032A099001D0072A05DB03464146A3
:10052000204600F09BF90BE12078800601D5E069B8
:1005300000E00620B8F1650F814606D0B8F1660FDD
:1005400018D0B8F1670F70D131E00020B9F1110F68
:10055000009001DB112301E009F101030AAA01A9BE
:100560000CA8FFF7E4FEDDE90C70002609F1010597
:10057000834647E001204B4600904FF000470AAA0F
:1005800001A90CA8FFF7D3FEDDE90DB00C995D467B
:10059000002610B909F101000D18B9EB050003D4CC
:1005A000C0F1FF3609F10105A5EB09002BE0B9F117
:1005B000010F01DA4FF001090020B9F1110F00908D
:1005C000484601DD112300E003460AAA01A90CA850
:1005D000FFF7ADFEDDE90C704D460026834620781E
:1005E00000070AD4AB4500DA5D4601A8012D04DD01
:1005F000411911F8011C302907D04F4502DA17F1D3
:10060000040F04DA012082460FE06D1EEEE7002F92
:1006100002DCED1B3E4403E0781CA84200DD7D1C9B
:10062000B81B00F1010A4FF000472078000703D4FF
:10063000AA4501DB4FF0FF3A0021B7F1004F0DF161
:1006400043088DF8431024D002202B23002F01DA19
:100650007F422D230A21021EA0F1010000DC5FB1C0
:1006600097FBF1FC97FBF1F201FB1C7C17460CF1A8
:10067000300C08F801CDEEE7A8F1010003702188E5
:10068000090501D5452100E06521A0F1010800F828
:10069000011C09980FA9A1EB0807FF1D00B101205B
:1006A000411901EBEA70A1693844081A401EA061A3
:1006B0002078C00602D42046AFF30080099828B104
:1006C000D4E901219047206A401C20622078C006AE
:1006D00022D52046AFF300801EE0002E04DBB34598
:1006E00002DD01A8805D00E03020D4E901219047BF
:1006F000206A401C2062761CAAF101005FEA000A11
:100700000AD100F061F8C0680168405CD4E90121B9
:100710009047206A401C2062281EA5F10105DCDC00
:1007200007E0D4E9012118F8010B9047206A401C2A
:100730002062381EA7F10107F3DC2046AFF30080EA
:10074000032011B043E6000001694A1C02610878E9
:10075000704700B58FB0CDE9013100210591054901
:100760007944CDE9031011466846FFF74DFD0FB0FF
:1007700000BD0000E5FFFFFF0A6802F8010B0A60F8
:1007800070474FF000020429C0F0128010F0030CF3
:1007900000F01481CCF1040CBCF1020F18BF00F87A
:1007A000012BA8BF20F8022BA1EB0C0100F006B929
:1007B0005FEAC17C24BF00F8012B00F8012B48BF81
:1007C00000F8012B7047000000487047C800002067
:1007D00030B5B0F10A024FEA900E71F100034EEA13
:1007E000817EB0EB0E0061EB91014FEA101E4EEAE4
:1007F000017E10EB0E0041EB11114FEA102E4EEA74
:10080000016E10EB0E0041EB11214FEA104E4EEA43
:10081000014E10EB0E0041EB1141401841F1000177
:100820004FEAD00040EA41704FEAD10110EB800559
:100830004FEA810444EA907444EB01046D1944EBDF
:100840000404521BA3414FF0000348BF0A3200D5F5
:1008500030BD401C41F1000130BD00002DE9F041E8
:100860001F46044603260168072A01F4006004DBE2
:1008700008B116A505E016A503E008B115A500E02E
:1008800015A521F010002060A069C01EA0610FB165
:10089000401EA0612046AFF300804FB1D4E9012192
:1008A00038469047206A401C2062C01C206206E047
:1008B000206AFAE7D4E9012115F8010B9047761E6A
:1008C000F8D22046AFF30080BDE8F0814E414E00E3
:1008D0006E616E00494E4600696E66002DE9F04774
:1008E000814616468AB0334878440DC88DE80D001D
:1008F00030487844801C03AC0DC884E80D0041F6F4
:100900009B300844372190FBF1F290FBF1F5A5F103
:10091000800501FB12041B3C02D56442012000E06B
:100920000020DFF890A080460027FA44AAF1BE0A12
:100930000DE0E00709D03246684607EB47010AEBB5
:10094000810100F05DFB8DE8070064107F1C002C26
:10095000EFD1184F7F44AC3F18E0E80714D007EB05
:1009600004100DF1180A90E80E008AE80E00C06825
:10097000F04201D198190890324606A903A800F068
:100980003FFB03AB83E807006D10641C002DE4D12E
:1009900032466946B8F1000F03A802D000F01CFBF4
:1009A00001E000F02DFBC9E90001C9F808200AB0F8
:1009B000BDE8F087C43200004FF0000200B51346D6
:1009C00094469646203922BFA0E80C50A0E80C506F
:1009D000B1F12001BFF4F7AF090728BFA0E80C5020
:1009E00048BF0CC05DF804EB890028BF40F8042B19
:1009F00008BF704748BF20F8022B11F0804F18BF86
:100A000000F8012B7047000000487047A800002044
:100A10007546FFF7F9FFAE4605006946534620F0DC
:100A20000700854618B020B5FFF7C8FBBDE8204099
:100A30004FF000064FF000074FF000084FF0000B9A
:100A400021F00701AC46ACE8C009ACE8C009ACE84D
:100A5000C009ACE8C0098D4670470446AFF300807A
:100A60002046FFF797FB00004FF0013C50F8042BA5
:100A700051F8043B9A4221D1A2EB0C03934313EAB1
:100A8000CC1317D150F8042B51F8043B9A4215D1DE
:100A9000A2EB0C03934313EACC130BD150F8042BB5
:100AA00051F8043B9A4209D1A2EB0C03934313EA99
:100AB000CC13DBD04FF00000704700BFD01A01BA52
:100AC000B1FA81F101F0180122FA01F0CB40C1F135
:100AD0002001DBB2C0B2C01A2CFA01F3D11A914343
:100AE00011EAC311E6D1704701491820ABBEFEE7F9
:100AF0002600020070475FEA400C08BF91F0000F2B
:100B00004FEA8C234FEAC12243EA51514FEA1C506D
:100B100018BF00F5F0404FEA300018BF41F0004127
:100B20005FEA6C5C00F02980BCF1FF3F08BF40F039
:100B300080407047130C06BF12044FF0100C4FF0AA
:100B4000000C130E04BF12020CF1080C130F04BFAB
:100B500012010CF1040C930F04BF92000CF1020C73
:100B6000D30F04BF52000CF1010C11464FF00002EC
:100B7000A0F11F00A0EB0C00704711F0004F08BF60
:100B8000704731F000413FF4D5AF0B0C06BF0904AC
:100B90004FF0100C4FF0000C0B0E04BF09020CF1CB
:100BA000080C0B0F04BF09010CF1040C8B0F04BFE0
:100BB00089000CF1020CCB0F04BF49000CF1010CB1
:100BC000CCF12003A0EB0C0022FA03F302FA0CF2A2
:100BD00041EA030100F10100704720F07F4C80EAF8
:100BE000030023F07F47ACEB070303F57C5300F0D1
:100BF000004003F1FF032DE980494FEA154B09B48A
:100C00004FEA144325EA0B4E24EA03480FF2042668
:100C100006EB132749083E785FEA320203FB0667BA
:100C2000C7F5000707FB06F64FEA54374FEAD646EA
:100C300006F1020607FB066CCCF1005C4FEA1C478C
:100C40002CEA074C07FB06F40CFB06F504EB1546F3
:100C50004FEA961634BF00204FF000404FEAD137DC
:100C600006FB07FC4FEA1C4C0CFB0BF7D21B03FBEB
:100C70000CF761EB07010CFB0EF7B0EB074072EBD2
:100C800017420CFB08F734BFA2EB0742B2EB074256
:100C900061EB17414FEA0C444FEA910706FB07FC52
:100CA0004FEA1C4C0CFB0BF7B0EBC74072EB573212
:100CB00003FB0CF734BFA2EBC742B2EBC74261EBB8
:100CC00057310CFB0EF7B0EBC70072EB57720CFB01
:100CD00008F734BFA2EBC702B2EBC70261EB577152
:100CE000039F4FEA816141EA921104EBCC044FEA81
:100CF000D1374FEA826206FB07FC42EA90124FEAC4
:100D000080604FEA1C4C0CFB0BF7D21B03FB0CF76B
:100D100061EB07010CFB0EF7B0EB074072EB1742DB
:100D20000CFB08F734BFA2EB0742B2EB074261EBC2
:100D300017414FEA8C554FEA910704EB9C2406FBC0
:100D400007FC4FEA1C4C0CFB0BF7B0EBC74072EBF7
:100D5000573203FB0CF734BFA2EBC742B2EBC742DA
:100D600061EB57310CFB0EF7B0EBC70072EB57721B
:100D70000CFB08F734BFA2EBC702B2EBC70261EB72
:100D8000577115EB4C254FEA816141EA92114FEA08
:100D900082624FEAD13742EA901206FB07FC44F127
:100DA00000044FEA80604FEA1C4C0CFB0BF7D21B8F
:100DB00003FB0CF761EB07010CFB0EF7B0EB0740F0
:100DC00072EB17420CFB08F734BFA2EB0742B2EB01
:100DD000074261EB174115EB1C154FEA813141EADF
:100DE00092414FEA823242EA90424FEA80304FEA23
:100DF0000C7644F1000448EA03434EEA0B484FF0F6
:100E0000000EB2EB080C71EB030724BF62463946B3
:100E10004EEB0E0E4FF0000B0018524149414BEBC8
:100E20000B0BB2EB080C71EB03077BF1000B24BF3B
:100E3000624639464EEB0E0E4FF0000B0018524141
:100E400049414BEB0B0BB2EB080C71EB03077BF149
:100E5000000B24BF624639464EEB0E0E51EA0207E4
:100E600018BF46F0010616EB0E7655F1000254F15C
:100E7000000103D5BDE88901BDE80088BDE889010E
:100E8000BDE80048B619524141EB0101A3F101034D
:100E9000704780807F7E7D7C7B7A797877767675E7
:100EA0007473727171706F6E6E6D6C6C6B6A6A695F
:100EB0006868676666656464636362616160605FF9
:100EC0005F5E5E5D5D5C5C5B5B5A5A595958585772
:100ED00057565655555554545353525252515150DA
:100EE00050504F4F4F4E4E4D4D4D4C4C4C4B4B4B2D
:100EF0004A4A4A4949494848484747474746464673
:100F000045454544444444434343434242424241AD
:100F10004141002B26D4770021D01CB54FEA37077A
:100F200003B44FF010004FF010014FF000000FBC61
:100F3000BDE810400BF1010BBBF1010F08BF5FEAE8
:100F4000170722BF12F1010211F101014FF0004118
:100F500043F1000300F0004043EA00007047F9D37A
:100F60005708DAE746EA064613F1400F4FEA1646FD
:100F70001FDD13F1200FDFBF16430A460021203387
:100F80005B42C8D0C3F1200746EA064602FA07F7DB
:100F90004FEA164646EA0706C3F1200722FA03F293
:100FA00001FA07F721FA03F14FF0000342EA0702C2
:100FB000B1E746EA020646EA06464FEA164646EA20
:100FC0000106BCBF46EA0646360C4FF000034FF060
:100FD00000024FF000019EE72DE9C048934630B46F
:100FE00091E8380007C831EA400C48BF34EA430CA6
:100FF00003D5FFF7F2FDFFF78CFFF0BCBDE80088DA
:101000002DE9C048934630B491E8380007C810F085
:10101000804F08BF13F0804F03D100F005F8FFF7B1
:1010200078FFF0BCBDE8008820F07F4780EA03002D
:1010300023F07F4C07EB0C03A3F57C5300F000403A
:10104000A3F1FE0392F0000F00F0B38095F0000FC3
:1010500000F077802DE901494FEA11404FEA14462C
:1010600021EA004800FB06FC24EA064708FB06F6D6
:1010700007FB08F800FB07F718EB06484CEB164C8B
:101080004FEA124B18EB07484FEA15464CEB174056
:1010900022EA0B4E0BFB06FC25EA06470EFB06F682
:1010A00007FB0EFE0BFB07F71EEB064E4CEB164C38
:1010B0004FF000061EEB074E4CEB174B18EB0B08DE
:1010C00040F1000018EB0E0B58EB000840F1000057
:1010D0008F1A4FF000013CBFC943661B14BFB5EB2C
:1010E000040C00213CBFC943F61B4FEA17444EEAEB
:1010F0008E0E27EA04454FEA1C4704FB07622CEAE0
:10110000074C05FB07F70CFB05F604FB0CFC16EB84
:10111000074642EB174216EB0C4642EB1C421BEB18
:10112000060658EB0202414146EA9E0601D5BDE89B
:101130000189B619524141EB0101A3F10103BDE858
:1011400001894FEA14454FEA114724EA054621EA8E
:10115000074C05FB07F406FB07F70CFB06F105FB44
:101160000CFC11EB074144EB17444FEA124711EB1B
:101170000C4144EB1C4422EA074C05FB07F206FB3A
:1011800007F70CFB06F605FB0CFC16EB074642EBDB
:10119000174216EB0C4642EB1C456A1854F100014D
:1011A00048BF7047B619524141EB0101A3F1010359
:1011B000704795F0000F37D04FEA11424FEA1447BD
:1011C00021EA024624EA074C02FB07F106FB07F777
:1011D0000CFB06F402FB0CFC14EB074441EB17413B
:1011E0004FEA154714EB0C4441EB1C4125EA074C30
:1011F00002FB07F506FB07F70CFB06F602FB0CFCEF
:1012000016EB074645EB174516EB0C4645EB1C4223
:10121000121951F1000148BF7047B619524141EB14
:101220000101A3F1010370474FEA14454FEA11474A
:1012300024EA054621EA074C05FB07F106FB07F700
:101240000CFB06F24FF0000605FB0CFC12EB07420C
:1012500041EB174112EB0C4251EB1C4148BF704768
:10126000921841EB0101A3F10103704700BFFEE7B3
:101270002DE9F04104460D46164659490978584A69
:10128000527841EA022108B201F0E2FE80464FF0B6
:101290008E4101F0FFFD0746524901F0F1FE30603A
:1012A0004F4989784E4AD27841EA022108B201F0CA
:1012B000CFFE80464FF08E4101F0ECFD07464949D4
:1012C00001F0DEFE706046490979454A527941EAEB
:1012D000022108B201F0BCFE80464FF08E4101F0C1
:1012E000D9FD07463F4901F0CBFEB0603C49897902
:1012F0003B4AD27941EA022108B201F0A9FE8046B8
:101300004FF08E4101F0C6FD0746374901F0B8FEA7
:1013100020603349097A324A527A41EA022108B2FE
:1013200001F096FE80464FF08E4101F0B3FD074676
:101330002D4901F0A5FE60602949897A284AD27AB0
:1013400041EA022108B201F083FE80464FF08E414F
:1013500001F0A0FD0746244901F092FEA06020495B
:10136000097B1F4A527B41EA022108B201F070FE5C
:1013700080464FF08E4101F08DFD07461B4901F07C
:101380007FFE28601649897B154AD27B41EA0221FB
:1013900008B201F05DFE80464FF08E4101F07AFD0B
:1013A0000746124901F06CFE68600D49097C0C4A41
:1013B000527C41EA022108B201F04AFE80464FF019
:1013C0008E4101F067FD0746084901F059FEA8600B
:1013D000122200210248FEF79EFFBDE8F0810000C6
:1013E00070000020CDCC1C430000FA4400003443C0
:1013F000704710B500F004F800F052F810BD00007E
:1014000000B587B00121084600F0A4FC01210520A9
:1014100000F0B0FC0320ADF8180004208DF81B008C
:1014200003208DF81A0006A91C4800F087F8002058
:10143000ADF81200ADF80E004FF6FF70ADF81000D9
:101440000020ADF80C0003A94FF0804001F06CF9CA
:1014500000231A4603214FF0804000F0F4FF684655
:1014600001F07CF80A20ADF808006946400701F059
:101470001FF80121880700F0C5FF012211469007DF
:1014800001F075F800214FF0804001F01FF90121B3
:10149000880700F0BDFF07B000BD00000008014054
:1014A00000B587B00121042000F054FC012109207F
:1014B00000F060FCC020ADF8180004208DF81B007F
:1014C00003208DF81A0006A91A4800F037F800200A
:1014D000ADF81200ADF80E004FF6FF70ADF8100039
:1014E0000020ADF80C0003A9134801F01DF90023FA
:1014F0001A460321104800F0A6FF684601F02EF8B6
:101500000A20ADF8080069460B4800F0D1FF012120
:10151000094800F077FF01221146074801F027F83B
:101520000021054801F0D2F80121034800F070FFC6
:1015300007B000BD000C0140000800402DE9F0415B
:10154000024600250026002000230024002791F8F1
:1015500003C00CF00F0591F803C00CF0100CBCF1A7
:10156000000F03D091F802C04CEA050591F800C0C5
:10157000BCF1000F31D0146800202BE04FF0010CBB
:101580000CFA00F3B1F800C00CEA03069E4220D129
:1015900083004FF00F0C0CFA03F7BC4305FA03FC71
:1015A0004CEA040491F803C0BCF1280F06D14FF0B7
:1015B000010C0CFA00FCC2F814C00AE091F803C058
:1015C000BCF1480F05D14FF0010C0CFA00FCC2F839
:1015D00010C0401C0828D1D31460B1F800C0BCF181
:1015E000FF0F34DD546800202EE000F1080C4FF0AE
:1015F000010808FA0CF3B1F800C00CEA03069E4299
:1016000021D183004FF00F0C0CFA03F7BC4305FA0D
:1016100003FC4CEA040491F803C0BCF1280F05D187
:1016200000F1080C08FA0CF8C2F8148091F803C015
:10163000BCF1480F07D100F1080C4FF0010808FA7F
:101640000CF8C2F81080401C0828CED35460BDE8C6
:10165000F0810AB1016100E04161704705480078FE
:10166000012804D1002003490870012070470020A0
:10167000FCE700001400002010B500F00DF8522027
:1016800000F060F8612000F05DF8632000F05AF887
:10169000652000F057F810BD00B585B00121042089
:1016A00000F068FB0121480400F054FB0420ADF871
:1016B000100018208DF8130003208DF8120004A9E3
:1016C0001648FFF73BFF0820ADF8100048208DF8C2
:1016D000130004A91148FFF731FF4FF4E1300090E7
:1016E0000020ADF80C000C20ADF80A000020ADF889
:1016F0000800ADF80600ADF804006946084801F09E
:101700007DF9012240F22551054801F051F90121EE
:10171000034801F00AF905B000BD000000080140CF
:101720000044004010B504462146054801F0D7F9B1
:1017300000BF8021024801F004F90028F9D010BD53
:101740000044004010B50446FF20FFF7EBFFAA203D
:10175000FFF7E8FF2046FFF7E5FF10BD00BFFEE7FB
:101760000268B2F5E15F02DD4FF4E1520260026807
:1017700012F5E15F01DA084A02600A68B2F5E15F3A
:1017800002DD4FF4E1520A600A6812F5E15F01DA06
:10179000014A0A6070470000E0E3FFFF70B50446AD
:1017A0000D46002C0ADD002210211F48FFF751FFD3
:1017B000012220211C48FFF74CFF09E001221021E3
:1017C0001948FFF746FF002220211748FFF741FF85
:1017D000261E01DB304600E0704281B2134800F063
:1017E00070FF002D0BDD00224FF400511048FFF771
:1017F00030FF012211030E48FFF72BFF0AE0012200
:1018000051030B48FFF725FF00224FF48051084891
:10181000FFF71FFF2E1E01DB304600E0704281B251
:10182000024800F050FF70BD00080140002C01404C
:10183000000C014000BFFEE708B50121042000F0C4
:1018400099FA0121042000F095FA0121082000F006
:1018500091FA0121082000F08DFA1020ADF8000067
:101860008DF8030003208DF8020069460D48FFF74C
:1018700065FE2020ADF8000069460A48FFF75EFECD
:101880004FF40050ADF8000069460748FFF756FED8
:101890004FF48050ADF8000069460348FFF74EFE54
:1018A00008BD000000080140000C014010B5FFF722
:1018B000C3FF00F0EFF9FFF79CFD10BD704708B5BE
:1018C0004FF4A06000F056F826208DF800000120AB
:1018D0008DF8030000208DF801008DF802006846A5
:1018E00000F010F81D208DF8000001208DF8030095
:1018F00000208DF8010001208DF80200684600F0FC
:1019000001F808BD70B5002100230F22C47804B38C
:10191000154C246804F4E064C4F5E064210AC1F1C4
:101920000403CA40447804FA03F184781440214344
:1019300009010E4C0678A155047804F01F05012416
:10194000AC4005786D11AD0005F1E025C5F800410A
:1019500009E0047804F01F050124AC40044D06782A
:10196000761145F8264070BD0CED00E000E400E083
:1019700080E100E002490143024A11607047000023
:101980000000FA050CED00E070B500240EE0002127
:10199000204600F0E6F8002504E0002000F06AF997
:1019A000681CC5B2802DF8DB601CC4B2082CEEDBCD
:1019B00070BD000008B50121082000F0DBF94FF4EC
:1019C0008070ADF8000014208DF8030003208DF81E
:1019D000020069460A48FFF7B1FD4FF40070ADF808
:1019E000000069460648FFF7A9FD012211020448DC
:1019F000FFF72FFE012251020148FFF72AFE08BD22
:101A0000000C014070B50546002415E080202041FF
:101A100000EA05024FF400710E48FFF71AFE01229A
:101A200011020C48FFF715FE00224FF4807109489F
:101A3000FFF70FFE601CC4B2082CE7DB0122110285
:101A40000448FFF706FE00224FF480710148FFF7BB
:101A500000FE70BD000C014010B5012251020A4881
:101A6000FFF7F7FD012211020748FFF7F2FD002200
:101A70004FF400710448FFF7ECFD00224FF4807131
:101A80000148FFF7E6FD10BD000C014010B5002233
:101A90004FF400710648FFF7DCFD012211020448F3
:101AA000FFF7D7FD012251020148FFF7D2FD10BD1B
:101AB000000C014070B5002406E0002500E06D1C1C
:101AC000B5F57A7FFBD3641CB4F57A7FF5D3FFF7C5
:101AD00071FFAE2000F0BEF8D52000F0BBF88020EA
:101AE00000F0B8F8A82000F0B5F83F2000F0B2F8F8
:101AF000D32000F0AFF8002000F0ACF8402000F058
:101B0000A9F8A12000F0A6F8C82000F0A3F8DA2078
:101B100000F0A0F8122000F09DF8812000F09AF863
:101B2000CF2000F097F8D92000F094F8F12000F0D1
:101B300091F8DB2000F08EF8302000F08BF8A42024
:101B400000F088F8A62000F085F88D2000F082F8DB
:101B5000142000F07FF8AF2000F07CF8FFF714FFAE
:101B600070BD70B505460C4645F0B00000F072F847
:101B7000102141EA141000F06DF804F00F0000F09D
:101B800069F870BD2DE9F04105460E461746721EF4
:101B9000D206110E6A1E5206100EFFF7E2FF002455
:101BA00009E0A7F12001134A02EB0111085D00F0E2
:101BB00061F8601CC4B2082CF3DB721ED206110E51
:101BC0006A1E012303EB4202D0B2FFF7CAFF0024D2
:101BD0000BE0A7F12001074A02EB011204F1080112
:101BE000505C00F047F8601CC4B2082CF1DBBDE883
:101BF000F0810000423500082DE9F04107460E460D
:101C00001546002407E02A5D3019C1B23846FFF7B7
:101C1000B9FF601CC4B2285D0028F4D1BDE8F08192
:101C20002DE9F843054688461446204601F0A4F8FD
:101C3000064632460B4605A16846FEF7D1FA6A46CB
:101C400041462846FFF7D8FFBDE8F883252E3166C8
:101C50002020000010B50446FFF7FEFE7820FFF7B5
:101C6000D1FE0020FFF7CEFE2046FFF7CBFEFFF7A8
:101C70000DFF10BD10B50446FFF7EEFE7820FFF70C
:101C8000C1FE4020FFF7BEFE2046FFF7BBFEFFF778
:101C9000FDFE10BD00B589B00121042000F06AF8F6
:101CA0000121C80200F066F80121084600F062F840
:101CB0004FF41060ADF8200018208DF823000320A9
:101CC0008DF8220008A92048FFF738FC05A800F08D
:101CD0007DFD0020ADF81A0041F61F40ADF8180058
:101CE0000020ADF81400ADF8160005A9174800F063
:101CF0001BFD6020ADF804000020ADF80C000120B1
:101D0000ADF806000020ADF80A0001A90F4800F068
:101D100037FC01A90D4800F089FC01210B4800F0B7
:101D200083FB0821094800F077FC0821074800F0F0
:101D3000BBFC0121054800F059FB0121034800F0DC
:101D400067FB09B000BD000000080140002C014005
:101D50007047000029B1064AD2690243044BDA6198
:101D600004E0034AD2698243014BDA617047000004
:101D70000010024029B1064A92690243044B9A615D
:101D800004E0034A92698243014B9A617047000064
:101D90000010024030B500210022002400232D4D08
:101DA0006D6805F00C0121B1042905D0082923D163
:101DB00005E0294D056022E0274D05601FE0254D17
:101DC0006D6805F47012234D6D6805F480340225AA
:101DD00005EB92421CB9214D554305600BE01D4DAA
:101DE0006D6805F400351DB11C4D5543056002E0DA
:101DF000194D5543056002E0174D056000BF00BF57
:101E0000144D6D6805F0F0010909154D6B5C05680E
:101E1000DD4045600F4D6D6805F4E061090A104D25
:101E20006B5C4568DD4085600A4D6D6805F4605166
:101E3000C90A0B4D6B5C4568DD40C560054D6D689A
:101E400005F44041890B074D6B5CC568B5FBF3F5A4
:101E5000056130BD0010024000127A0000093D000B
:101E6000000000201000002070B50546022D02D0B1
:101E7000042D14D10AE04FF0804000F005FB04B2BD
:101E800000214FF0804000F021FC0AE0064800F0FD
:101E9000FBFA04B20021044800F018FC01E0002421
:101EA00000BF00BF204670BD00080040704710B55D
:101EB00000F002F810BD00000CB500200190009069
:101EC0003348006840F480303149086000BF304832
:101ED000006800F4003000900198401C01900098C8
:101EE00018B90198B0F5A06FF1D12948006800F445
:101EF000003010B10120009001E000200090009817
:101F0000012843D12348006840F0100021490860AF
:101F10000846006820F0030008600846006840F0AA
:101F2000020008601A48406819494860084640683D
:101F300048600846406840F4806048600846406851
:101F400020F47C1048600846406840F4E81048607F
:101F50000846006840F08070086000BF0C480068C8
:101F600000F000700028F9D00948406820F0030014
:101F7000074948600846406840F00200486000BFDA
:101F80000348406800F00C000828F9D10CBD00009F
:101F900000100240002002407047000010B51348B6
:101FA000006840F001001149086008464068104987
:101FB00008400E494860084600680E4908400B4931
:101FC00008600846006820F48020086008464068E1
:101FD00020F4FE0048604FF41F008860FFF767FFA1
:101FE0004FF000600449086010BD0000001002407E
:101FF0000000FFF8FFFFF6FE08ED00E0F0B50C462C
:10200000154600220021068C4FF6FE773E400684DE
:10201000028B018C4FF60C7632407E1C06EA0316CA
:102020002E433243104EB0420ED0104EB0420BD071
:10203000B0F1804F08D00E4EB04205D00D4EB042E8
:1020400002D00D4EB04206D14FF6FD76314044F03D
:102050000106314305E04FF6F576314044F00106C4
:10206000314302830184F0BD002C01400034014063
:102070000004004000080040000C0040F0B50C4691
:102080001546002200210026078C4FF6EF7C07EA58
:102090000C070784028B018C4FF6FF7707EA0416C2
:1020A00040F6FF473A404FF6FF7707EA03373A43D7
:1020B0004FF6FF7707EA05273A43114FB8420ED093
:1020C000104FB8420BD0B0F1804F08D00E4FB8423D
:1020D00005D00E4FB84202D00D4FB84206D14FF690
:1020E000DF77394046F01007394305E04FF65F7758
:1020F000394044F01007394302830184F0BD0000E9
:10210000002C014000340140000400400008004061
:10211000000C0040F0B50C461546002200210026B8
:10212000078C4FF6FF6C07EA0C070784828B018C43
:102130004FF6FF7707EA04264FF60C773A404FF642
:10214000FF7707EA03172F433A43114FB8420ED0E7
:10215000104FB8420BD0B0F1804F08D00E4FB842AC
:1021600005D00E4FB84202D00D4FB84206D14FF6FF
:10217000FF57394046F48077394305E04FF2FF5767
:10218000394044F48077394382830184F0BD0000F4
:10219000002C0140003401400004004000080040D1
:1021A000000C0040F0B50C46154600220021002628
:1021B000078C4EF6FF7C07EA0C070784828B018CA4
:1021C0004FF6FF7707EA043640F6FF473A404FF6EE
:1021D000FF7707EA05273A434FF6FF7707EA033709
:1021E0003A43114FB8420ED0104FB8420BD0B0F165
:1021F000804F08D00E4FB84205D00E4FB84202D0E3
:102200000D4FB84206D14DF6FF77394046F480575E
:10221000394305E047F6FF57394044F480573943C6
:1022200082830184F0BD0000002C01400034014095
:102230000004004000080040000C004010B50121DF
:10224000880700F024F9012803D10121800700F05C
:10225000DCF810BD2DE9FC4701213B4800F017F9DF
:1022600001286ED10420FFF7FFFD45420220FFF751
:10227000FBFD06463548056035480660FFF7EEF978
:1022800001285AD1334A34493448FEF7F1FF334824
:102290000268314801683248006800F0B5FC3149F5
:1022A00008603148006800F0B7FE0746324629460C
:1022B00000F01CFC2D4908602D48006800F0ACFEC1
:1022C00007462649886800F0A7FE8046394600F098
:1022D00087FA284908602548006800F0B9FE824660
:1022E00025480168504600F0CBFE80461D48006836
:1022F00000F0AEFE8146414600F098FF074600F030
:102300008BFE04461D4804601A480068201A01909C
:102310001848006820440090694601A8FFF720FA99
:1023200017480078012804D1DDE90010FFF736FADC
:1023300003E000210846FFF731FA0121024800F0CE
:1023400064F8BDE8FC870000000400404C00002059
:102350005000002084000020900000209C000020FD
:102360001C0000204000002020000020440000202D
:1023700024000020480000202800002054000020F5
:10238000180000200EB501210220FFF7E3FC002019
:10239000ADF80600ADF8020040F2E730ADF80400F9
:1023A00040F2CF20ADF800006946084800F0BCF9C3
:1023B0000121064800F026F801221146034800F0EA
:1023C000D6F80121014800F023F80EBD00040040BA
:1023D00010B50121044800F05AF8012803D1012169
:1023E000014800F012F810BD0008004021B1028839
:1023F00042F08002028004E002884FF67F731A40A8
:1024000002807047CA4302827047CA430282704703
:1024100021B1028842F00102028004E002884FF6F6
:10242000FE731A400280704731B1B0F8442042F484
:102430000042A0F8442005E0B0F84420C2F30E02A8
:10244000A0F844207047F0B50C4615461E46002102
:10245000002200230189028B038C4FF6F877394064
:1024600021434FF6FC473A4040F201173A434FF6FA
:10247000DD773B404FF6FF7707EA06172F433B43D4
:10248000018102830384F0BD0146888C704730B51A
:102490000246002000230024158A05EA01039589DD
:1024A00005EA010413B10CB1012000E0002030BDA9
:1024B00070B505460C46244885420ED02348854217
:1024C0000BD0B5F1804F08D02148854205D0214876
:1024D000854202D02048854200D100E000BF20881C
:1024E00050B92389A28861882846FFF787FDE188D3
:1024F000284600F0EDF825E0208804280AD1238939
:10250000A28861882846FFF7B9FDE188284600F0D7
:10251000E8F817E0208808280AD12389A288618872
:102520002846FFF7F7FDE188284600F0E7F809E0C4
:102530002389A28861882846FFF734FEE18828466F
:1025400000F0E5F870BD0000002C014000340140AF
:102550000004004000080040000C00400021018001
:102560004180012181800021C180018170471AB121
:1025700083890B43838102E083898B438381704786
:1025800070B5002400220023058C4FF6FE763540FE
:102590000584028C8388048B4FF68F752C40B51E02
:1025A0002C400D882C43751E2A400D892A434D88E6
:1025B0002A43144DA8420BD0134DA84208D0134D06
:1025C000A84205D0124DA84202D0124DA84213D104
:1025D0004FF6F7752A404D892A434FF6FB752A407E
:1025E0008D882A434FF6FF652B404FF6FF552B4051
:1025F0008D892B43CD892B4383800483CD888586A9
:10260000028470BD002C01400034014000400140B4
:1026100000440140004801400A460021018B4FF66A
:10262000F7731940114301837047000070B5002211
:1026300000230024058C4EF6FF7635400584038C7C
:102640008488828B48F6FF752A404FF6FF452A4062
:102650000D884FF6FF7606EA05252A434DF6FF75ED
:102660002B400D8906EA05352B434D8806EA0535D2
:102670002B430B4DA84202D00A4DA84208D14BF67D
:10268000FF752C408D894FF6FF7606EA85152C43A1
:1026900084808283CD88A0F84050038470BD000000
:1026A000002C0140003401400A460021818B4FF28A
:1026B000FF7319404FF6FF7303EA02231943818326
:1026C000704781867047A0F840107047818470473A
:1026D000028B4FF6F3731A400283028B0A43028384
:1026E0007047028B4FF2FF331A400283028B4FF682
:1026F000FF7303EA01231A4302837047828B4FF66C
:10270000F3731A408283828B0A4382837047828BE1
:102710004FF2FF331A408283828B4FF6FF7303EA36
:1027200001231A4382837047002202881D4B98427E
:102730000ED01D4B98420BD0B0F1804F08D01B4BF0
:10274000984205D01A4B984202D01A4B984204D1B5
:102750004FF68F731A404B881A43174B984207D095
:10276000164B984204D04FF6FF431A40CB881A43C9
:1027700002808B8883850B8803850A4B98420BD097
:10278000094B984208D00E4B984205D00D4B984209
:1027900002D00D4B984201D10B7A0386012383822C
:1027A00070470000002C014000340140000400404C
:1027B00000080040000C00400010004000140040E1
:1027C0000040014000440140004801404FF6FF71C5
:1027D000818000210180C18041800172704700002A
:1027E0002DE9F04705460C46204600F031FC8246B4
:1027F0000C480168504600F043FC8046284600F033
:1028000027FC824608480168504600F039FC8146A2
:10281000414600F0DDFA074600F0FEFB0646304672
:10282000BDE8F087380000203C00002010B540F2E1
:102830002551304800F092F801285AD12D4800F077
:1028400049F9C4B22C48007848B9552C03D101206D
:102850002949087047E000202749087043E02648CE
:10286000007801281DD1512C06D100202349087081
:1028700002202149087036E0522C06D101201F4960
:10288000087002201C4908702DE0532C05D102204D
:102890001A4908701849087025E000201649087088
:1028A00021E01548007802281DD115480078134909
:1028B0000978062202FB010012490C5410480078E6
:1028C000401C0F4908700846007806280BDB0B48AF
:1028D0000078022802D101200B4908700020084925
:1028E00008700549087040F22551024800F00EF8C2
:1028F00000BF10BD0044004015000020160000205D
:1029000017000020700000201400002010B50022E5
:10291000002340F66A14A14200D100BF0A1201242C
:102920009440A3B2DC43048010BD21B1828942F4FB
:102930000052828104E082894DF6FF731A40828141
:10294000704702460020B1F5007F00D100BF138818
:102950000B400BB1012000E00020704770B502462B
:10296000002400230025002040F66A16B14200D161
:1029700000BFC1F3421501F01F03012606FA03F35D
:10298000012D02D19689334006E0022D02D1168A2C
:10299000334001E0968A33400C12012606FA04F413
:1029A0001688344013B10CB1012000E0002070BD46
:1029B000F0B50346002400260025002040F66A17E3
:1029C000B94200D100BF1846C1F3421401F01F06FE
:1029D000012707FA06F5012C01D10C3004E0022C86
:1029E00001D1103000E014301AB107682F4307609E
:1029F00002E00768AF430760F0BD00002DE9F04733
:102A000086B005460E460024A24600BFA146002718
:102A1000B08900B100BF2F462C8A4CF6FF700440ED
:102A2000F08804432C82AC894EF6F3100440B08841
:102A300031890843718908430443AC81AC8A4FF65D
:102A4000FF400440B0890443AC8201A8FFF7A2F91B
:102A50001F48874202D1DDF810A001E0DDF80CA08C
:102A6000A88900F4004040B10AEBCA0000EB0A104C
:102A700031684900B0FBF1F807E00AEBCA0000EB4F
:102A80000A1031688900B0FBF1F86420B8FBF0F05F
:102A900004012009642101FB1089A88900F4004089
:102AA00040B1322000EBC900B0FBF1F000F00700AC
:102AB000044308E0322000EB09106421B0FBF1F080
:102AC00000F00F0004432C8106B0BDE8F087000041
:102AD0000038014001468888C0F308007047C1F300
:102AE00008028280704700BFFEE700002DE9F84F22
:102AF00004460D4616463A4F3A48007860B9002021
:102B0000394908603949086039490860394908601D
:102B100039490860BDE8F88FA819001B35490860DD
:102B20003148006800F094FA8346394600F0A8FA6C
:102B300081463048006800F08BFA834639464FF0F2
:102B40007E5000F073FB5946009000F099FA8246DF
:102B5000494600F03DF9804600F05EFA23490860DE
:102B60000846006820490860214800681F49096834
:102B700008441F4908600846006842F21071884204
:102B800001DD084608E01A4800681C49884201DA5D
:102B9000084601E0164800681549086008460068C4
:102BA00000F056FA834616480168584600F068FA65
:102BB00081460E48006800F04BFA834611480168D0
:102BC000584600F05DFA8246494600F001F9804619
:102BD00000F022FA08490860084600689AE70000F9
:102BE0003333333F180000206800002064000020C9
:102BF000600000205C00002058000020F0D8FFFF9B
:102C000034000020300000202DE9F05F05460E461C
:102C100014460021204600F009FB83460D48016858
:102C2000584600F02DFA81463146284600F0F4FA65
:102C3000834609480168584600F022FA8246494610
:102C400000F0C6F8804600F0E7F907463846BDE8D0
:102C5000F09F00002C00002028000020490050EACE
:102C6000C12018BF04204A0D18BF40F0010040F2F7
:102C7000FF72B2EB515F08BF40F00200012808BFAD
:102C80000520704730380A2801D201207047002003
:102C900070470000FEF70EFFFEF7EEFCFEF706FEA3
:102CA000FEF70DFEFFF76EFB1DA201210846FEF7A1
:102CB000A3FF1DA201210320FEF79EFF2FE01C4869
:102CC000082102680120FEF7ABFF19480221426883
:102CD0000846FEF7A5FF1648082182680220FEF785
:102CE0009FFF1448006800F0B3F904462246022111
:102CF0000420FEF795FF1048006800F0A9F904468B
:102D0000224608210420FEF78BFF0C48006800F0E3
:102D10009FF90446224608210320FEF781FFCEE7F3
:102D2000416E676C653A20004F75743A20000000D0
:102D3000900000204C000020500000205400002093
:102D400010B500290AD00878002807D00548784433
:102D5000FDF78AFE002801D0002010BD024878440B
:102D600010BD00009A0E0000920E00000808A0F5A9
:102D700000114FEA3101704743004FEAD30C4FEA8C
:102D80003C0C43401FBF40070CF1605113F0FE4F55
:102D900070471CF0006F03D100200CF00041704719
:102DA0000CF0004343EA507010B540EACC0000F04C
:102DB000E8F900BF000000924FEA0001FFF7D6BF1C
:102DC0004FF000414FF00000A1F5002170470000D6
:102DD00090EA010F48BF81F0004100F12E82421AB3
:102DE0003CBF801A89184FEAD0524FF07F4C1CEA42
:102DF000410FA2EBD15318BF9CEA026F00F03B8059
:102E00004FF0004C4CEA00204CEA012121FA03FC6F
:102E100010EB0C0C1ED202F1FF325FEA1C2040EBDB
:102E2000C25038BF70471CF07F0F4FEA400C18BFEC
:102E3000BCF17F4F38BF7047C3F12003994008BFF2
:102E400020F00100BCF17F4F38BF7047A0F1C040B7
:102E500000F0DDB94FEA3C00000A40EBC25028BF49
:102E60001CF0FF0F4FEA400CE6D018BFBCF17F4FBB
:102E700038BF7047EAE79CEA026F05D010EA5C0FA2
:102E800008BF00F00040704710B500F07AF900BFAD
:102E900064FBBE3E4FF47F0C1CEAD0121EBF1CEA3E
:102EA000D11392EA0C0F93EA0C0F00F0858090EAA0
:102EB000010F48BF42F4807240F4000C41F400005E
:102EC0002CF07F4120F07F4000B58142A2EB03024D
:102ED0000FF2081CACEB504EC0F100009EF800E071
:102EE0004FEA4E0E00FB0EFC38BF49004FEA2C1C87
:102EF00002F5FA020CFB0EF34FEACE1E4FEA112C3C
:102F00004FEAC1210EEB635E42EB22420EFB0CFC4A
:102F10004FEA1C5300FB03114FEA112C4FEA013119
:102F20000EFB0CFC4FEADC4C00FB0C11C14228BF2D
:102F300009184CEB03335DF804EB10EB410143EB54
:102F4000C250B2F57C0F38BF704729D512F0F00F90
:102F50001CBF00F1C04000F0004070470081828338
:102F60008485868788898B8C8D8E8F919293959698
:102F700097999A9C9D9FA0A2A3A5A7A8AAACAEB022
:102F8000B2B3B5B7B9BCBEC0C2C5C7C9CCCED1D427
:102F9000D7D9DCDFE2E6E9ECF0F3F7FAFE00000057
:102FA0004FEA400C0CF1807CBCF17E4F28BF70478B
:102FB000B0F1C04000F02BB990EA010F0CEAD11338
:102FC00048BF42F48072624538BF634507D213F4AC
:102FD0007F0F16D080EA010000F00040704710B566
:102FE00000F0CFF8097EFC3E00F005B880EA010051
:102FF00000F00040704780EA010000F0004000F05F
:1030000006B912F47F0F04BF0248704780EA01003E
:1030100000F0FDB80000C07F41000B0ED3F19E020E
:1030200008D950F400034FEA032323FA02F048BF03
:103030004042704710B500F0A4F800BF49922480C8
:10304000002070476FF0004282EA200070470000C5
:1030500010F0004148BF4042B0FA80F310FA03F28A
:10306000C3F19D030BD051EAC35101EB122053066B
:1030700038BF704700F1010008BF20F00100704721
:103080004FF47F0C1CEAD0121EBF1CEAD11392EA47
:103090000C0F93EA0C0F00F0478090EA010F48BF35
:1030A00042F480724FF0004C4CEA00204CEA0121BF
:1030B00002EB0302A0FB0113A2F50002002918BFD6
:1030C00043F001035B0028BF4FEA330342EB224287
:1030D0005FEA132C4CEBC2502EBFBCEB436FB2F532
:1030E0007C0F70474FEA036CBCF1004F08BF20F023
:1030F0000100B2F57C0F38BF70470BD582F0FF029C
:1031000012F5803FC8BF704700F1C040D8BF00F043
:103110000040704700F5000C5FEA4C0C48BF704758
:10312000B0F1C04000F073B890EA010F0CEAD1137F
:1031300048BF42F48072624538BF634504D280EADA
:10314000010000F00040704710B500F01AF800BF11
:103150008900013E00F007B800F009B85FEA410CB1
:103160005FEA1C6C08D080EA010000F050B85FEA0A
:10317000400C5FEA1C6CF6D14FF00040A0F58000D7
:1031800070470EF1020E2EF0030E5EF8044B24423F
:1031900004D44FEA4102B2F17F4F11D84FEA400305
:1031A000B3F17F4F0CD80ED14FEAD07CB2F17F4FF4
:1031B0000CEB4C0C0CF1020C08BF4CEBD17C04E086
:1031C0004FF0080C01E04FEAD17C0CEB4C0324FAE1
:1031D00003F404F00704B4F1040C06D20EEB840CE3
:1031E000BDE810404CF0010C6047DFE80CF0070828
:1031F00002024FF00040A0F5800010BD08464200DA
:1032000018BFD2F1807288BF00F0004010BDFF21CE
:1032100041EAD050C005704780F0004090EA010FAD
:103220007FF5DDAD81F0004100F007B890EA010FB5
:1032300048BF81F000413FF5D2AD421A04D882F078
:103240000042A0EB020011444FEAD0524FF07F4CF5
:103250001CEA410FA2EBD15318BF9CEA026F4AD07F
:103260004FF0004C4CEA00204CEA012121FA03FC0B
:10327000B0EB0C0C0FD412F0FE0F36D05FEA4C000E
:103280001DD5001240EBC25038BF70471CF03F0FF5
:1032900018BF70470BE0A2F101025FEA1C2040EB6F
:1032A000C25038BF70471CF07F0F18BF7047C3F182
:1032B0002003994014BF401E20F001007047800891
:1032C0004FEA122308BF7047B0FA80FCA2EB0C0251
:1032D000CCF1280C60FA0CF093EA122F04BF00EB3B
:1032E000C25070474FEAC3707047130A5FEADC10A0
:1032F00008BF7047F6E79CEA026F04D010EA5C0F43
:1033000008BF0020704710B5FFF73BFF40DFF63ED7
:1033100081F000407047FDF7E0B8000000000000B9
:103320000000002F000000000700070000147F14B9
:103330007F1400242A7F2A120062640813230036B7
:103340004955225000000503000000001C224100E6
:10335000000041221C000014083E08140008083E2A
:103360000808000000A06000000808080808000025
:1033700060600000002010080402003E5149453EF4
:103380000000427F40000042615149460021414512
:103390004B31001814127F10002745454539003C79
:1033A0004A49493000017109050300364949493647
:1033B00000064949291E0000363600000000563636
:1033C000000000081422410000141414141400001A
:1033D0004122140800020151090600324959513EA8
:1033E000007C1211127C007F49494936003E414160
:1033F0004122007F4141221C007F49494941007F11
:1034000009090901003E4149497A007F0808087FFF
:103410000000417F4100002040413F01007F08142F
:103420002241007F40404040007F020C027F007F2D
:103430000408107F003E4141413E007F0909090612
:10344000003E4151215E007F091929460046494945
:1034500049310001017F0101003F4040403F001F12
:103460002040201F003F4038403F00631408146391
:1034700000070870080700615149454300007F417B
:10348000410000552A552A55000041417F000004A3
:1034900002010204004040404040000001020400DC
:1034A000002054545478007F484444380038444441
:1034B000442000384444487F0038545454180008CD
:1034C0007E0901020018A4A4A47C007F08040478EB
:1034D0000000447D4000004080847D00007F102873
:1034E00044000000417F4000007C04180478007C08
:1034F0000804047800384444443800FC2424241888
:103500000018242418FC007C0804040800485454C3
:10351000542000043F444020003C4040207C001CDC
:103520002040201C003C4030403C004428102844EF
:10353000001CA0A0A07C004464544C441414141437
:103540001414000000000000000000000000000053
:103550000000000000F80000000000000033300010
:10356000000000100C06100C060000000000000017
:10357000000040C07840C0784000043F04043F048D
:103580000400007088FC08300000001820FF211E95
:103590000000F008F000E018000000211C031E21CC
:1035A0001E0000F00888700000001E212324192747
:1035B000211010160E0000000000000000000000A6
:1035C0000000000000E018040200000000071820BE
:1035D000400000020418E00000000040201807002E
:1035E0000000404080F0804040000202010F0102D4
:1035F0000200000000F0000000000101011F0101B5
:103600000100000000000000000080B07000000019
:1036100000000000000000000000000101010101A5
:103620000101000000000000000000303000000038
:10363000000000000000806018040060180601000F
:10364000000000E010080810E000000F102020101B
:103650000F00001010F8000000000020203F202084
:10366000000000700808088870000030282422211B
:1036700030000030088888483000001820202011D1
:103680000E000000C02010F8000000070424243FB2
:10369000240000F80888880808000019212020115B
:1036A0000E0000E0108888180000000F1120201183
:1036B0000E0000380808C83808000000003F00006D
:1036C00000000070880808887000001C2221212258
:1036D0001C0000E010080810E00000003122221158
:1036E0000F00000000C0C0000000000000303000EB
:1036F000000000000080000000000000806000006A
:1037000000000000804020100800000102040810A2
:1037100020004040404040404000040404040404B1
:10372000040000081020408000000020100804025F
:103730000100007048080808F00000000030360161
:103740000000C030C828E810E00007182724231420
:103750000B000000C038E0000000203C23020227DC
:10376000382008F8888888700000203F2020201129
:103770000E00C03008080808380007182020201064
:10378000080008F808080810E000203F202020105A
:103790000F0008F88888E8081000203F2020232028
:1037A000180008F88888E8081000203F200003006F
:1037B0000000C03008080838000007182020221E2A
:1037C000020008F808000008F808203F2101012144
:1037D0003F20000808F8080800000020203F2020B3
:1037E000000000000808F8080800C08080807F0002
:1037F000000008F888C028180800203F200126385B
:10380000200008F8080000000000203F20202020B1
:10381000300008F8F800F8F80800203F003F003FAB
:10382000200008F830C00008F808203F20000718E2
:103830003F00E01008080810E0000F1020202010C2
:103840000F0008F808080808F000203F21010101D6
:103850000000E01008080810E0000F182424385079
:103860004F0008F8888888887000203F2000030CEB
:1038700030200070880808083800003820212122F4
:103880001C00180808F8080818000000203F200055
:10389000000008F808000008F808001F2020202079
:1038A0001F000878880000C83808000007380E019B
:1038B0000000F80800F80008F800033C0700073C87
:1038C0000300081868808068180820302C03032C37
:1038D00030200838C800C83808000000203F200009
:1038E000000010080808C8380800203826212020C9
:1038F0001800000000FE020202000000007F4040AD
:103900004000000C30C0000000000000000106383C
:10391000C00000020202FE000000004040407F00A4
:103920000000000004020202040000000000000089
:103930000000000000000000000080808080808087
:10394000808000020204000000000000000000006F
:1039500000000000808080800000001924222222C4
:103960003F2008F8008080000000003F1120201157
:103970000E000000008080800000000E112020203A
:103980001100000000808088F800000E1120201037
:103990003F200000808080800000001F2222222221
:1039A0001300008080F0888888180020203F2020A5
:1039B00000000000808080808000006B94949493CD
:1039C000600008F8008080800000203F2100002077
:1039D0003F2000809898000000000020203F202019
:1039E0000000000000809898000000C08080807F68
:1039F000000008F8000080808000203F24022D3065
:103A00002000000808F8000000000020203F2020CF
:103A100000008080808080808000203F20003F2048
:103A2000003F8080008080800000203F2100002037
:103A30003F200000808080800000001F2020202088
:103A40001F00808000808000000080FFA1202011E6
:103A50000E000000008080808000000E112020A059
:103A6000FF80808080008080800020203F21200017
:103A70000100000080808080800000332424242402
:103A80001900008080E0808000000000001F2020DE
:103A900000008080000000808000001F2020201097
:103AA0003F20808080000080808000010E3008066A
:103AB000010080800080008080800F300C030C307B
:103AC0000F0000808000808080000020312E0E31A9
:103AD0002000808080000080808080818E701806A9
:103AE000010000808080808080000021302C222115
:103AF000300000000000807C020200000000003F57
:103B0000404000000000FF00000000000000FF0037
:103B100000000002027C800000000040403F0000E6
:103B20000000000601010202040400000000000081
:103B30000000000002400000000000A000000000A3
:103B400005400000000000C8000000000C4000001C
:103B50000000409C00000000194000000020BCBE96
:103B60000000000034400000BFC91B8E00000004AC
:103B7000B5400000504BCFD06607E2CF01000000F7
:103B80006C4100003E8251AADFEEA7340100000024
:103B9000D9420000DCB5A0E23A301F97FFFFFFFFDB
:103BA000B4450000FD25A0C8E9A3C14FFFFFFFFFFA
:103BB000FF3F00000000008000000000FF3F000009
:103BC0000000008000000000043C0008000000200D
:103BD0007000000028010008743C000870000020FC
:103BE00098060000440100081C000000430000008B
:103BF000F8FFFFFF0C0000000E0000000F000000A7
:103C00002E00000000000000010203040102030472
:103C10000607080902040608000000000100000071
:103C20000000000000000000000000000000484309
:103C3000CDCCAC401F852B3FAC8B5B3B0000000024
:103C400000005041000000000000000000000000E3
:103C50000000000000000000000000000000000064
:103C60000000000000000000000000000000000054
:043C70000000000050
:04000005080000ED02
:00000001FF
